{
  "_format": "hh-sol-artifact-1",
  "contractName": "Truecaller",
  "sourceName": "contracts/Truecaller.sol",
  "abi": [
    {
      "anonymous": false,
      "inputs": [
        {
          "indexed": true,
          "internalType": "bytes32",
          "name": "mobileNumberHash",
          "type": "bytes32"
        },
        {
          "indexed": false,
          "internalType": "string",
          "name": "name",
          "type": "string"
        },
        {
          "indexed": false,
          "internalType": "string",
          "name": "email",
          "type": "string"
        }
      ],
      "name": "CallerRegistered",
      "type": "event"
    },
    {
      "anonymous": false,
      "inputs": [
        {
          "indexed": true,
          "internalType": "bytes32",
          "name": "mobileNumberHash",
          "type": "bytes32"
        }
      ],
      "name": "SpamReportCleared",
      "type": "event"
    },
    {
      "anonymous": false,
      "inputs": [
        {
          "indexed": true,
          "internalType": "bytes32",
          "name": "mobileNumberHash",
          "type": "bytes32"
        },
        {
          "indexed": false,
          "internalType": "uint256",
          "name": "spamCount",
          "type": "uint256"
        },
        {
          "indexed": false,
          "internalType": "bool",
          "name": "isSpam",
          "type": "bool"
        }
      ],
      "name": "SpamReported",
      "type": "event"
    },
    {
      "inputs": [
        {
          "internalType": "uint256",
          "name": "",
          "type": "uint256"
        }
      ],
      "name": "callerArray",
      "outputs": [
        {
          "internalType": "string",
          "name": "mobileNumber",
          "type": "string"
        },
        {
          "internalType": "string",
          "name": "name",
          "type": "string"
        },
        {
          "internalType": "string",
          "name": "email",
          "type": "string"
        },
        {
          "internalType": "uint256",
          "name": "spamCount",
          "type": "uint256"
        },
        {
          "internalType": "bool",
          "name": "isSpam",
          "type": "bool"
        },
        {
          "internalType": "uint256",
          "name": "lastReportTime",
          "type": "uint256"
        }
      ],
      "stateMutability": "view",
      "type": "function"
    },
    {
      "inputs": [
        {
          "internalType": "bytes32",
          "name": "",
          "type": "bytes32"
        }
      ],
      "name": "callers",
      "outputs": [
        {
          "internalType": "string",
          "name": "mobileNumber",
          "type": "string"
        },
        {
          "internalType": "string",
          "name": "name",
          "type": "string"
        },
        {
          "internalType": "string",
          "name": "email",
          "type": "string"
        },
        {
          "internalType": "uint256",
          "name": "spamCount",
          "type": "uint256"
        },
        {
          "internalType": "bool",
          "name": "isSpam",
          "type": "bool"
        },
        {
          "internalType": "uint256",
          "name": "lastReportTime",
          "type": "uint256"
        }
      ],
      "stateMutability": "view",
      "type": "function"
    },
    {
      "inputs": [
        {
          "internalType": "string",
          "name": "mobileNumber",
          "type": "string"
        }
      ],
      "name": "clearSpamReport",
      "outputs": [],
      "stateMutability": "nonpayable",
      "type": "function"
    },
    {
      "inputs": [],
      "name": "getAllCallerInfo",
      "outputs": [
        {
          "components": [
            {
              "internalType": "string",
              "name": "mobileNumber",
              "type": "string"
            },
            {
              "internalType": "string",
              "name": "name",
              "type": "string"
            },
            {
              "internalType": "string",
              "name": "email",
              "type": "string"
            },
            {
              "internalType": "uint256",
              "name": "spamCount",
              "type": "uint256"
            },
            {
              "internalType": "bool",
              "name": "isSpam",
              "type": "bool"
            },
            {
              "internalType": "uint256",
              "name": "lastReportTime",
              "type": "uint256"
            }
          ],
          "internalType": "struct Truecaller.Caller[]",
          "name": "",
          "type": "tuple[]"
        }
      ],
      "stateMutability": "view",
      "type": "function"
    },
    {
      "inputs": [],
      "name": "getAllSpamNumbers",
      "outputs": [
        {
          "internalType": "bytes32[]",
          "name": "",
          "type": "bytes32[]"
        },
        {
          "internalType": "string[]",
          "name": "",
          "type": "string[]"
        },
        {
          "internalType": "string[]",
          "name": "",
          "type": "string[]"
        },
        {
          "internalType": "bool[]",
          "name": "",
          "type": "bool[]"
        },
        {
          "internalType": "uint256[]",
          "name": "",
          "type": "uint256[]"
        }
      ],
      "stateMutability": "view",
      "type": "function"
    },
    {
      "inputs": [
        {
          "internalType": "string",
          "name": "mobileNumber",
          "type": "string"
        }
      ],
      "name": "reportSpam",
      "outputs": [],
      "stateMutability": "nonpayable",
      "type": "function"
    },
    {
      "inputs": [
        {
          "internalType": "string",
          "name": "mobileNumber",
          "type": "string"
        },
        {
          "internalType": "string",
          "name": "name",
          "type": "string"
        },
        {
          "internalType": "string",
          "name": "email",
          "type": "string"
        }
      ],
      "name": "setCaller",
      "outputs": [],
      "stateMutability": "nonpayable",
      "type": "function"
    },
    {
      "inputs": [],
      "name": "spamCooldown",
      "outputs": [
        {
          "internalType": "uint256",
          "name": "",
          "type": "uint256"
        }
      ],
      "stateMutability": "view",
      "type": "function"
    },
    {
      "inputs": [
        {
          "internalType": "uint256",
          "name": "",
          "type": "uint256"
        }
      ],
      "name": "spamMobileNumbers",
      "outputs": [
        {
          "internalType": "bytes32",
          "name": "",
          "type": "bytes32"
        }
      ],
      "stateMutability": "view",
      "type": "function"
    }
  ],
  "bytecode": "0x608060405234801561001057600080fd5b50612360806100206000396000f3fe608060405234801561001057600080fd5b50600436106100935760003560e01c806361d45b9d1161006657806361d45b9d14610122578063667ba3a71461013e5780636a305e131461015c5780637936464e1461017a578063f907dfe3146101af57610093565b80630804258414610098578063280d0cf8146100b457806328a1b4a6146100d65780634f00983314610106575b600080fd5b6100b260048036038101906100ad9190611708565b6101e4565b005b6100bc6104f8565b6040516100cd959493929190611d7e565b60405180910390f35b6100f060048036038101906100eb91906117e0565b610aba565b6040516100fd9190611e16565b60405180910390f35b610120600480360381019061011b9190611749565b610ade565b005b61013c60048036038101906101379190611708565b610cbc565b005b610146610f5f565b6040516101539190611df4565b60405180910390f35b6101646111a3565b6040516101719190611f3e565b60405180910390f35b610194600480360381019061018f91906116df565b6111a8565b6040516101a696959493929190611e68565b60405180910390f35b6101c960048036038101906101c491906117e0565b611389565b6040516101db96959493929190611e68565b60405180910390f35b60006101ef8261157a565b905060008060008381526020019081526020016000206001018054610213906121e3565b905011610255576040517f08c379a000000000000000000000000000000000000000000000000000000000815260040161024c90611f1e565b60405180910390fd5b60008082815260200190815260200160002060040160009054906101000a900460ff16156102ad5760008082815260200190815260200160002060030160008154809291906102a390612215565b9190505550610320565b600160008083815260200190815260200160002060040160006101000a81548160ff02191690831515021790555060016000808381526020019081526020016000206003018190555060018190806001815401808255809150506001900390600052602060002001600090919091909150555b426000808381526020019081526020016000206005018190555060005b6002805490508110156104a3578160028281548110610385577f4e487b7100000000000000000000000000000000000000000000000000000000600052603260045260246000fd5b90600052602060002090600602016000016040516020016103a69190611d67565b604051602081830303815290604052805190602001201415610490576001600282815481106103fe577f4e487b7100000000000000000000000000000000000000000000000000000000600052603260045260246000fd5b906000526020600020906006020160040160006101000a81548160ff0219169083151502179055506000808381526020019081526020016000206003015460028281548110610476577f4e487b7100000000000000000000000000000000000000000000000000000000600052603260045260246000fd5b9060005260206000209060060201600301819055506104a3565b808061049b90612215565b91505061033d565b50807fe56d64058786296643cff019ba97547f109ccb38ae5565802a18187367d2d42a6000808481526020019081526020016000206003015460016040516104ec929190611f59565b60405180910390a25050565b6060806060806060600060018054905067ffffffffffffffff811115610547577f4e487b7100000000000000000000000000000000000000000000000000000000600052604160045260246000fd5b6040519080825280602002602001820160405280156105755781602001602082028036833780820191505090505b509050600060018054905067ffffffffffffffff8111156105bf577f4e487b7100000000000000000000000000000000000000000000000000000000600052604160045260246000fd5b6040519080825280602002602001820160405280156105f257816020015b60608152602001906001900390816105dd5790505b509050600060018054905067ffffffffffffffff81111561063c577f4e487b7100000000000000000000000000000000000000000000000000000000600052604160045260246000fd5b60405190808252806020026020018201604052801561066f57816020015b606081526020019060019003908161065a5790505b509050600060018054905067ffffffffffffffff8111156106b9577f4e487b7100000000000000000000000000000000000000000000000000000000600052604160045260246000fd5b6040519080825280602002602001820160405280156106e75781602001602082028036833780820191505090505b509050600060018054905067ffffffffffffffff811115610731577f4e487b7100000000000000000000000000000000000000000000000000000000600052604160045260246000fd5b60405190808252806020026020018201604052801561075f5781602001602082028036833780820191505090505b50905060005b600180549050811015610a9e576000600182815481106107ae577f4e487b7100000000000000000000000000000000000000000000000000000000600052603260045260246000fd5b9060005260206000200154905060008060008381526020019081526020016000209050806000016040516020016107e59190611d67565b60405160208183030381529060405280519060200120888481518110610834577f4e487b7100000000000000000000000000000000000000000000000000000000600052603260045260246000fd5b60200260200101818152505080600101805461084f906121e3565b80601f016020809104026020016040519081016040528092919081815260200182805461087b906121e3565b80156108c85780601f1061089d576101008083540402835291602001916108c8565b820191906000526020600020905b8154815290600101906020018083116108ab57829003601f168201915b5050505050878481518110610906577f4e487b7100000000000000000000000000000000000000000000000000000000600052603260045260246000fd5b6020026020010181905250806002018054610920906121e3565b80601f016020809104026020016040519081016040528092919081815260200182805461094c906121e3565b80156109995780601f1061096e57610100808354040283529160200191610999565b820191906000526020600020905b81548152906001019060200180831161097c57829003601f168201915b50505050508684815181106109d7577f4e487b7100000000000000000000000000000000000000000000000000000000600052603260045260246000fd5b60200260200101819052508060040160009054906101000a900460ff16858481518110610a2d577f4e487b7100000000000000000000000000000000000000000000000000000000600052603260045260246000fd5b6020026020010190151590811515815250508060030154848481518110610a7d577f4e487b7100000000000000000000000000000000000000000000000000000000600052603260045260246000fd5b60200260200101818152505050508080610a9690612215565b915050610765565b5084848484849950995099509950995050505050509091929394565b60018181548110610aca57600080fd5b906000526020600020016000915090505481565b60006040518060c0016040528085815260200184815260200183815260200160008152602001600015158152602001600081525090506000610b1f8561157a565b9050816000808381526020019081526020016000206000820151816000019080519060200190610b509291906115aa565b506020820151816001019080519060200190610b6d9291906115aa565b506040820151816002019080519060200190610b8a9291906115aa565b506060820151816003015560808201518160040160006101000a81548160ff02191690831515021790555060a0820151816005015590505060028290806001815401808255809150506001900390600052602060002090600602016000909190919091506000820151816000019080519060200190610c0a9291906115aa565b506020820151816001019080519060200190610c279291906115aa565b506040820151816002019080519060200190610c449291906115aa565b506060820151816003015560808201518160040160006101000a81548160ff02191690831515021790555060a082015181600501555050807f8aa903bd7e079258de132ac80d274dcd29c53260f39006430d8c7982f6e0be328585604051610cad929190611e31565b60405180910390a25050505050565b6000610cc78261157a565b905060008082815260200190815260200160002060040160009054906101000a900460ff16610d2b576040517f08c379a0000000000000000000000000000000000000000000000000000000008152600401610d2290611efe565b60405180910390fd5b603c6000808381526020019081526020016000206005015442610d4e919061214d565b1015610d8f576040517f08c379a0000000000000000000000000000000000000000000000000000000008152600401610d8690611ede565b60405180910390fd5b600080600083815260200190815260200160002060030181905550600080600083815260200190815260200160002060040160006101000a81548160ff02191690831515021790555060005b600280549050811015610f2d578160028281548110610e23577f4e487b7100000000000000000000000000000000000000000000000000000000600052603260045260246000fd5b9060005260206000209060060201600001604051602001610e449190611d67565b604051602081830303815290604052805190602001201415610f1a57600060028281548110610e9c577f4e487b7100000000000000000000000000000000000000000000000000000000600052603260045260246000fd5b906000526020600020906006020160040160006101000a81548160ff021916908315150217905550600060028281548110610f00577f4e487b7100000000000000000000000000000000000000000000000000000000600052603260045260246000fd5b906000526020600020906006020160030181905550610f2d565b8080610f2590612215565b915050610ddb565b50807f2a08653d0a81d5b3ff131894ed72c7492a746a09285be8f3939be586c479362260405160405180910390a25050565b60606002805480602002602001604051908101604052809291908181526020016000905b8282101561119a57838290600052602060002090600602016040518060c0016040529081600082018054610fb6906121e3565b80601f0160208091040260200160405190810160405280929190818152602001828054610fe2906121e3565b801561102f5780601f106110045761010080835404028352916020019161102f565b820191906000526020600020905b81548152906001019060200180831161101257829003601f168201915b50505050508152602001600182018054611048906121e3565b80601f0160208091040260200160405190810160405280929190818152602001828054611074906121e3565b80156110c15780601f10611096576101008083540402835291602001916110c1565b820191906000526020600020905b8154815290600101906020018083116110a457829003601f168201915b505050505081526020016002820180546110da906121e3565b80601f0160208091040260200160405190810160405280929190818152602001828054611106906121e3565b80156111535780601f1061112857610100808354040283529160200191611153565b820191906000526020600020905b81548152906001019060200180831161113657829003601f168201915b50505050508152602001600382015481526020016004820160009054906101000a900460ff1615151515815260200160058201548152505081526020019060010190610f83565b50505050905090565b603c81565b60006020528060005260406000206000915090508060000180546111cb906121e3565b80601f01602080910402602001604051908101604052809291908181526020018280546111f7906121e3565b80156112445780601f1061121957610100808354040283529160200191611244565b820191906000526020600020905b81548152906001019060200180831161122757829003601f168201915b505050505090806001018054611259906121e3565b80601f0160208091040260200160405190810160405280929190818152602001828054611285906121e3565b80156112d25780601f106112a7576101008083540402835291602001916112d2565b820191906000526020600020905b8154815290600101906020018083116112b557829003601f168201915b5050505050908060020180546112e7906121e3565b80601f0160208091040260200160405190810160405280929190818152602001828054611313906121e3565b80156113605780601f1061133557610100808354040283529160200191611360565b820191906000526020600020905b81548152906001019060200180831161134357829003601f168201915b5050505050908060030154908060040160009054906101000a900460ff16908060050154905086565b6002818154811061139957600080fd5b90600052602060002090600602016000915090508060000180546113bc906121e3565b80601f01602080910402602001604051908101604052809291908181526020018280546113e8906121e3565b80156114355780601f1061140a57610100808354040283529160200191611435565b820191906000526020600020905b81548152906001019060200180831161141857829003601f168201915b50505050509080600101805461144a906121e3565b80601f0160208091040260200160405190810160405280929190818152602001828054611476906121e3565b80156114c35780601f10611498576101008083540402835291602001916114c3565b820191906000526020600020905b8154815290600101906020018083116114a657829003601f168201915b5050505050908060020180546114d8906121e3565b80601f0160208091040260200160405190810160405280929190818152602001828054611504906121e3565b80156115515780601f1061152657610100808354040283529160200191611551565b820191906000526020600020905b81548152906001019060200180831161153457829003601f168201915b5050505050908060030154908060040160009054906101000a900460ff16908060050154905086565b60008160405160200161158d9190611d50565b604051602081830303815290604052805190602001209050919050565b8280546115b6906121e3565b90600052602060002090601f0160209004810192826115d8576000855561161f565b82601f106115f157805160ff191683800117855561161f565b8280016001018555821561161f579182015b8281111561161e578251825591602001919060010190611603565b5b50905061162c9190611630565b5090565b5b80821115611649576000816000905550600101611631565b5090565b600061166061165b84611fb3565b611f82565b90508281526020810184848401111561167857600080fd5b6116838482856121a1565b509392505050565b60008135905061169a816122fc565b92915050565b600082601f8301126116b157600080fd5b81356116c184826020860161164d565b91505092915050565b6000813590506116d981612313565b92915050565b6000602082840312156116f157600080fd5b60006116ff8482850161168b565b91505092915050565b60006020828403121561171a57600080fd5b600082013567ffffffffffffffff81111561173457600080fd5b611740848285016116a0565b91505092915050565b60008060006060848603121561175e57600080fd5b600084013567ffffffffffffffff81111561177857600080fd5b611784868287016116a0565b935050602084013567ffffffffffffffff8111156117a157600080fd5b6117ad868287016116a0565b925050604084013567ffffffffffffffff8111156117ca57600080fd5b6117d6868287016116a0565b9150509250925092565b6000602082840312156117f257600080fd5b6000611800848285016116ca565b91505092915050565b60006118158383611a7d565b60208301905092915050565b600061182d8383611a9b565b60208301905092915050565b60006118458383611ab9565b905092915050565b60006118598383611c9b565b905092915050565b600061186d8383611d32565b60208301905092915050565b600061188482612048565b61188e81856120cb565b935061189983611fe3565b8060005b838110156118ca5781516118b18882611809565b97506118bc8361208a565b92505060018101905061189d565b5085935050505092915050565b60006118e282612053565b6118ec81856120dc565b93506118f783611ff3565b8060005b8381101561192857815161190f8882611821565b975061191a83612097565b9250506001810190506118fb565b5085935050505092915050565b60006119408261205e565b61194a81856120ed565b93508360208202850161195c85612003565b8060005b8581101561199857848403895281516119798582611839565b9450611984836120a4565b925060208a01995050600181019050611960565b50829750879550505050505092915050565b60006119b582612069565b6119bf81856120fe565b9350836020820285016119d185612013565b8060005b85811015611a0d57848403895281516119ee858261184d565b94506119f9836120b1565b925060208a019950506001810190506119d5565b50829750879550505050505092915050565b6000611a2a82612074565b611a34818561210f565b9350611a3f83612023565b8060005b83811015611a70578151611a578882611861565b9750611a62836120be565b925050600181019050611a43565b5085935050505092915050565b611a8681612181565b82525050565b611a9581612181565b82525050565b611aa48161218d565b82525050565b611ab38161218d565b82525050565b6000611ac48261207f565b611ace8185612120565b9350611ade8185602086016121b0565b611ae7816122eb565b840191505092915050565b6000611afd8261207f565b611b078185612131565b9350611b178185602086016121b0565b611b20816122eb565b840191505092915050565b6000611b368261207f565b611b408185612142565b9350611b508185602086016121b0565b80840191505092915050565b60008154611b69816121e3565b611b738186612142565b94506001821660008114611b8e5760018114611b9f57611bd2565b60ff19831686528186019350611bd2565b611ba885612033565b60005b83811015611bca57815481890152600182019150602081019050611bab565b838801955050505b50505092915050565b6000611be8601b83612131565b91507f436f6f6c646f776e20706572696f64206e6f7420656c617073656400000000006000830152602082019050919050565b6000611c28601c83612131565b91507f43616c6c6572206973206e6f74206d61726b6564206173207370616d000000006000830152602082019050919050565b6000611c68601083612131565b91507f43616c6c6572206e6f7420666f756e64000000000000000000000000000000006000830152602082019050919050565b600060c0830160008301518482036000860152611cb88282611ab9565b91505060208301518482036020860152611cd28282611ab9565b91505060408301518482036040860152611cec8282611ab9565b9150506060830151611d016060860182611d32565b506080830151611d146080860182611a7d565b5060a0830151611d2760a0860182611d32565b508091505092915050565b611d3b81612197565b82525050565b611d4a81612197565b82525050565b6000611d5c8284611b2b565b915081905092915050565b6000611d738284611b5c565b915081905092915050565b600060a0820190508181036000830152611d9881886118d7565b90508181036020830152611dac8187611935565b90508181036040830152611dc08186611935565b90508181036060830152611dd48185611879565b90508181036080830152611de88184611a1f565b90509695505050505050565b60006020820190508181036000830152611e0e81846119aa565b905092915050565b6000602082019050611e2b6000830184611aaa565b92915050565b60006040820190508181036000830152611e4b8185611af2565b90508181036020830152611e5f8184611af2565b90509392505050565b600060c0820190508181036000830152611e828189611af2565b90508181036020830152611e968188611af2565b90508181036040830152611eaa8187611af2565b9050611eb96060830186611d41565b611ec66080830185611a8c565b611ed360a0830184611d41565b979650505050505050565b60006020820190508181036000830152611ef781611bdb565b9050919050565b60006020820190508181036000830152611f1781611c1b565b9050919050565b60006020820190508181036000830152611f3781611c5b565b9050919050565b6000602082019050611f536000830184611d41565b92915050565b6000604082019050611f6e6000830185611d41565b611f7b6020830184611a8c565b9392505050565b6000604051905081810181811067ffffffffffffffff82111715611fa957611fa86122bc565b5b8060405250919050565b600067ffffffffffffffff821115611fce57611fcd6122bc565b5b601f19601f8301169050602081019050919050565b6000819050602082019050919050565b6000819050602082019050919050565b6000819050602082019050919050565b6000819050602082019050919050565b6000819050602082019050919050565b60008190508160005260206000209050919050565b600081519050919050565b600081519050919050565b600081519050919050565b600081519050919050565b600081519050919050565b600081519050919050565b6000602082019050919050565b6000602082019050919050565b6000602082019050919050565b6000602082019050919050565b6000602082019050919050565b600082825260208201905092915050565b600082825260208201905092915050565b600082825260208201905092915050565b600082825260208201905092915050565b600082825260208201905092915050565b600082825260208201905092915050565b600082825260208201905092915050565b600081905092915050565b600061215882612197565b915061216383612197565b9250828210156121765761217561225e565b5b828203905092915050565b60008115159050919050565b6000819050919050565b6000819050919050565b82818337600083830152505050565b60005b838110156121ce5780820151818401526020810190506121b3565b838111156121dd576000848401525b50505050565b600060028204905060018216806121fb57607f821691505b6020821081141561220f5761220e61228d565b5b50919050565b600061222082612197565b91507fffffffffffffffffffffffffffffffffffffffffffffffffffffffffffffffff8214156122535761225261225e565b5b600182019050919050565b7f4e487b7100000000000000000000000000000000000000000000000000000000600052601160045260246000fd5b7f4e487b7100000000000000000000000000000000000000000000000000000000600052602260045260246000fd5b7f4e487b7100000000000000000000000000000000000000000000000000000000600052604160045260246000fd5b6000601f19601f8301169050919050565b6123058161218d565b811461231057600080fd5b50565b61231c81612197565b811461232757600080fd5b5056fea26469706673582212203f5a5bbe02e0f87039975affef9371baca5cb3d576fdf4dff9e73c48dd72610764736f6c63430008000033",
  "linkReferences": {},
  "deployedLinkReferences": {}
}