{
  "_format": "hh-sol-artifact-1",
  "contractName": "Truecaller",
  "sourceName": "contracts/Truecaller.sol",
  "abi": [
    {
      "anonymous": false,
      "inputs": [
        {
          "indexed": true,
          "internalType": "string",
          "name": "mobileNumberHash",
          "type": "string"
        },
        {
          "indexed": false,
          "internalType": "string",
          "name": "name",
          "type": "string"
        },
        {
          "indexed": false,
          "internalType": "string",
          "name": "email",
          "type": "string"
        }
      ],
      "name": "CallerRegistered",
      "type": "event"
    },
    {
      "anonymous": false,
      "inputs": [
        {
          "indexed": true,
          "internalType": "string",
          "name": "mobileNumberHash",
          "type": "string"
        }
      ],
      "name": "SpamRemoved",
      "type": "event"
    },
    {
      "anonymous": false,
      "inputs": [
        {
          "indexed": true,
          "internalType": "string",
          "name": "mobileNumberHash",
          "type": "string"
        },
        {
          "indexed": false,
          "internalType": "bool",
          "name": "isSpam",
          "type": "bool"
        }
      ],
      "name": "SpamReported",
      "type": "event"
    },
    {
      "inputs": [
        {
          "internalType": "uint256",
          "name": "",
          "type": "uint256"
        }
      ],
      "name": "callerArray",
      "outputs": [
        {
          "internalType": "string",
          "name": "mobileNumber",
          "type": "string"
        },
        {
          "internalType": "string",
          "name": "name",
          "type": "string"
        },
        {
          "internalType": "string",
          "name": "email",
          "type": "string"
        },
        {
          "internalType": "bool",
          "name": "isSpam",
          "type": "bool"
        },
        {
          "internalType": "uint256",
          "name": "lastReportTime",
          "type": "uint256"
        }
      ],
      "stateMutability": "view",
      "type": "function"
    },
    {
      "inputs": [
        {
          "internalType": "string",
          "name": "",
          "type": "string"
        }
      ],
      "name": "callers",
      "outputs": [
        {
          "internalType": "string",
          "name": "mobileNumber",
          "type": "string"
        },
        {
          "internalType": "string",
          "name": "name",
          "type": "string"
        },
        {
          "internalType": "string",
          "name": "email",
          "type": "string"
        },
        {
          "internalType": "bool",
          "name": "isSpam",
          "type": "bool"
        },
        {
          "internalType": "uint256",
          "name": "lastReportTime",
          "type": "uint256"
        }
      ],
      "stateMutability": "view",
      "type": "function"
    },
    {
      "inputs": [],
      "name": "getAllCallerInfo",
      "outputs": [
        {
          "components": [
            {
              "internalType": "string",
              "name": "mobileNumber",
              "type": "string"
            },
            {
              "internalType": "string",
              "name": "name",
              "type": "string"
            },
            {
              "internalType": "string",
              "name": "email",
              "type": "string"
            },
            {
              "internalType": "bool",
              "name": "isSpam",
              "type": "bool"
            },
            {
              "internalType": "uint256",
              "name": "lastReportTime",
              "type": "uint256"
            }
          ],
          "internalType": "struct Truecaller.Caller[]",
          "name": "",
          "type": "tuple[]"
        }
      ],
      "stateMutability": "view",
      "type": "function"
    },
    {
      "inputs": [
        {
          "internalType": "string",
          "name": "mobileNumber",
          "type": "string"
        }
      ],
      "name": "removeSpam",
      "outputs": [],
      "stateMutability": "nonpayable",
      "type": "function"
    },
    {
      "inputs": [
        {
          "internalType": "string",
          "name": "mobileNumber",
          "type": "string"
        }
      ],
      "name": "reportSpam",
      "outputs": [],
      "stateMutability": "nonpayable",
      "type": "function"
    },
    {
      "inputs": [
        {
          "internalType": "string",
          "name": "mobileNumber",
          "type": "string"
        },
        {
          "internalType": "string",
          "name": "name",
          "type": "string"
        },
        {
          "internalType": "string",
          "name": "email",
          "type": "string"
        }
      ],
      "name": "setCaller",
      "outputs": [],
      "stateMutability": "nonpayable",
      "type": "function"
    },
    {
      "inputs": [],
      "name": "spamCooldown",
      "outputs": [
        {
          "internalType": "uint256",
          "name": "",
          "type": "uint256"
        }
      ],
      "stateMutability": "view",
      "type": "function"
    }
  ],
  "bytecode": "0x608060405234801561001057600080fd5b506112db806100206000396000f3fe608060405234801561001057600080fd5b506004361061007d5760003560e01c80636a305e131161005b5780636a305e13146100d8578063d96fe6c4146100f6578063f907dfe31461012a578063fe72c9171461015e5761007d565b806308042584146100825780634f0098331461009e578063667ba3a7146100ba575b600080fd5b61009c60048036038101906100979190610c68565b61017a565b005b6100b860048036038101906100b39190610ca9565b610265565b005b6100c261043b565b6040516100cf9190610fac565b60405180910390f35b6100e0610675565b6040516100ed91906110a8565b60405180910390f35b610110600480360381019061010b9190610c68565b61067a565b604051610121959493929190611020565b60405180910390f35b610144600480360381019061013f9190610d40565b61086b565b604051610155959493929190611020565b60405180910390f35b61017860048036038101906101739190610c68565b610a56565b005b600081905060008160405161018f9190610f95565b908152602001604051809103902060030160009054906101000a900460ff166101ed5760016000826040516101c49190610f95565b908152602001604051809103902060030160006101000a81548160ff0219169083151502179055505b426000826040516101fe9190610f95565b908152602001604051809103902060040181905550806040516102219190610f95565b60405180910390207f1c9f945886ef1af446dfbc2d45b75575776fc53c03ef05a9ceb0c960759a34a260016040516102599190610fce565b60405180910390a25050565b60006040518060a0016040528085815260200184815260200183815260200160001515815260200160008152509050806000856040516102a59190610f95565b908152602001604051809103902060008201518160000190805190602001906102cf929190610b48565b5060208201518160010190805190602001906102ec929190610b48565b506040820151816002019080519060200190610309929190610b48565b5060608201518160030160006101000a81548160ff021916908315150217905550608082015181600401559050506001819080600181540180825580915050600190039060005260206000209060050201600090919091909150600082015181600001908051906020019061037f929190610b48565b50602082015181600101908051906020019061039c929190610b48565b5060408201518160020190805190602001906103b9929190610b48565b5060608201518160030160006101000a81548160ff021916908315150217905550608082015181600401555050836040516103f49190610f95565b60405180910390207f3eb5413a94158ffe6c2ac09f3b4087ad04a2a2a74a1d06c46db43c170c3920af848460405161042d929190610fe9565b60405180910390a250505050565b60606001805480602002602001604051908101604052809291908181526020016000905b8282101561066c57838290600052602060002090600502016040518060a0016040529081600082018054610492906111ed565b80601f01602080910402602001604051908101604052809291908181526020018280546104be906111ed565b801561050b5780601f106104e05761010080835404028352916020019161050b565b820191906000526020600020905b8154815290600101906020018083116104ee57829003601f168201915b50505050508152602001600182018054610524906111ed565b80601f0160208091040260200160405190810160405280929190818152602001828054610550906111ed565b801561059d5780601f106105725761010080835404028352916020019161059d565b820191906000526020600020905b81548152906001019060200180831161058057829003601f168201915b505050505081526020016002820180546105b6906111ed565b80601f01602080910402602001604051908101604052809291908181526020018280546105e2906111ed565b801561062f5780601f106106045761010080835404028352916020019161062f565b820191906000526020600020905b81548152906001019060200180831161061257829003601f168201915b505050505081526020016003820160009054906101000a900460ff161515151581526020016004820154815250508152602001906001019061045f565b50505050905090565b603c81565b6000818051602081018201805184825260208301602085012081835280955050505050506000915090508060000180546106b3906111ed565b80601f01602080910402602001604051908101604052809291908181526020018280546106df906111ed565b801561072c5780601f106107015761010080835404028352916020019161072c565b820191906000526020600020905b81548152906001019060200180831161070f57829003601f168201915b505050505090806001018054610741906111ed565b80601f016020809104026020016040519081016040528092919081815260200182805461076d906111ed565b80156107ba5780601f1061078f576101008083540402835291602001916107ba565b820191906000526020600020905b81548152906001019060200180831161079d57829003601f168201915b5050505050908060020180546107cf906111ed565b80601f01602080910402602001604051908101604052809291908181526020018280546107fb906111ed565b80156108485780601f1061081d57610100808354040283529160200191610848565b820191906000526020600020905b81548152906001019060200180831161082b57829003601f168201915b5050505050908060030160009054906101000a900460ff16908060040154905085565b6001818154811061087b57600080fd5b906000526020600020906005020160009150905080600001805461089e906111ed565b80601f01602080910402602001604051908101604052809291908181526020018280546108ca906111ed565b80156109175780601f106108ec57610100808354040283529160200191610917565b820191906000526020600020905b8154815290600101906020018083116108fa57829003601f168201915b50505050509080600101805461092c906111ed565b80601f0160208091040260200160405190810160405280929190818152602001828054610958906111ed565b80156109a55780601f1061097a576101008083540402835291602001916109a5565b820191906000526020600020905b81548152906001019060200180831161098857829003601f168201915b5050505050908060020180546109ba906111ed565b80601f01602080910402602001604051908101604052809291908181526020018280546109e6906111ed565b8015610a335780601f10610a0857610100808354040283529160200191610a33565b820191906000526020600020905b815481529060010190602001808311610a1657829003601f168201915b5050505050908060030160009054906101000a900460ff16908060040154905085565b6000819050600081604051610a6b9190610f95565b908152602001604051809103902060030160009054906101000a900460ff16610ac9576040517f08c379a0000000000000000000000000000000000000000000000000000000008152600401610ac090611088565b60405180910390fd5b60008082604051610ada9190610f95565b908152602001604051809103902060030160006101000a81548160ff02191690831515021790555080604051610b109190610f95565b60405180910390207fec68c870f2236a5a3d474b4b45cb729110ad7ee47116bac29d9776ee6fc08f4960405160405180910390a25050565b828054610b54906111ed565b90600052602060002090601f016020900481019282610b765760008555610bbd565b82601f10610b8f57805160ff1916838001178555610bbd565b82800160010185558215610bbd579182015b82811115610bbc578251825591602001919060010190610ba1565b5b509050610bca9190610bce565b5090565b5b80821115610be7576000816000905550600101610bcf565b5090565b6000610bfe610bf9846110f4565b6110c3565b905082815260208101848484011115610c1657600080fd5b610c218482856111ab565b509392505050565b600082601f830112610c3a57600080fd5b8135610c4a848260208601610beb565b91505092915050565b600081359050610c628161128e565b92915050565b600060208284031215610c7a57600080fd5b600082013567ffffffffffffffff811115610c9457600080fd5b610ca084828501610c29565b91505092915050565b600080600060608486031215610cbe57600080fd5b600084013567ffffffffffffffff811115610cd857600080fd5b610ce486828701610c29565b935050602084013567ffffffffffffffff811115610d0157600080fd5b610d0d86828701610c29565b925050604084013567ffffffffffffffff811115610d2a57600080fd5b610d3686828701610c29565b9150509250925092565b600060208284031215610d5257600080fd5b6000610d6084828501610c53565b91505092915050565b6000610d758383610ef3565b905092915050565b6000610d8882611134565b610d928185611157565b935083602082028501610da485611124565b8060005b85811015610de05784840389528151610dc18582610d69565b9450610dcc8361114a565b925060208a01995050600181019050610da8565b50829750879550505050505092915050565b610dfb81611195565b82525050565b610e0a81611195565b82525050565b6000610e1b8261113f565b610e258185611168565b9350610e358185602086016111ba565b610e3e8161127d565b840191505092915050565b6000610e548261113f565b610e5e8185611179565b9350610e6e8185602086016111ba565b610e778161127d565b840191505092915050565b6000610e8d8261113f565b610e97818561118a565b9350610ea78185602086016111ba565b80840191505092915050565b6000610ec0601c83611179565b91507f43616c6c6572206973206e6f74206d61726b6564206173207370616d000000006000830152602082019050919050565b600060a0830160008301518482036000860152610f108282610e10565b91505060208301518482036020860152610f2a8282610e10565b91505060408301518482036040860152610f448282610e10565b9150506060830151610f596060860182610df2565b506080830151610f6c6080860182610f77565b508091505092915050565b610f80816111a1565b82525050565b610f8f816111a1565b82525050565b6000610fa18284610e82565b915081905092915050565b60006020820190508181036000830152610fc68184610d7d565b905092915050565b6000602082019050610fe36000830184610e01565b92915050565b600060408201905081810360008301526110038185610e49565b905081810360208301526110178184610e49565b90509392505050565b600060a082019050818103600083015261103a8188610e49565b9050818103602083015261104e8187610e49565b905081810360408301526110628186610e49565b90506110716060830185610e01565b61107e6080830184610f86565b9695505050505050565b600060208201905081810360008301526110a181610eb3565b9050919050565b60006020820190506110bd6000830184610f86565b92915050565b6000604051905081810181811067ffffffffffffffff821117156110ea576110e961124e565b5b8060405250919050565b600067ffffffffffffffff82111561110f5761110e61124e565b5b601f19601f8301169050602081019050919050565b6000819050602082019050919050565b600081519050919050565b600081519050919050565b6000602082019050919050565b600082825260208201905092915050565b600082825260208201905092915050565b600082825260208201905092915050565b600081905092915050565b60008115159050919050565b6000819050919050565b82818337600083830152505050565b60005b838110156111d85780820151818401526020810190506111bd565b838111156111e7576000848401525b50505050565b6000600282049050600182168061120557607f821691505b602082108114156112195761121861121f565b5b50919050565b7f4e487b7100000000000000000000000000000000000000000000000000000000600052602260045260246000fd5b7f4e487b7100000000000000000000000000000000000000000000000000000000600052604160045260246000fd5b6000601f19601f8301169050919050565b611297816111a1565b81146112a257600080fd5b5056fea264697066735822122007b00bf47a4679c773a4b88c664325150a7f1cf54a8f451ef732e1226881986a64736f6c63430008000033",
  "linkReferences": {},
  "deployedLinkReferences": {}
}