{
  "_format": "hh-sol-artifact-1",
  "contractName": "Truecaller",
  "sourceName": "contracts/Truecaller.sol",
  "abi": [
    {
      "anonymous": false,
      "inputs": [
        {
          "indexed": true,
          "internalType": "bytes32",
          "name": "mobileNumberHash",
          "type": "bytes32"
        },
        {
          "indexed": false,
          "internalType": "string",
          "name": "name",
          "type": "string"
        },
        {
          "indexed": false,
          "internalType": "string",
          "name": "email",
          "type": "string"
        }
      ],
      "name": "CallerRegistered",
      "type": "event"
    },
    {
      "anonymous": false,
      "inputs": [
        {
          "indexed": true,
          "internalType": "bytes32",
          "name": "mobileNumberHash",
          "type": "bytes32"
        }
      ],
      "name": "SpamReportCleared",
      "type": "event"
    },
    {
      "anonymous": false,
      "inputs": [
        {
          "indexed": true,
          "internalType": "bytes32",
          "name": "mobileNumberHash",
          "type": "bytes32"
        },
        {
          "indexed": false,
          "internalType": "uint256",
          "name": "spamCount",
          "type": "uint256"
        }
      ],
      "name": "SpamReported",
      "type": "event"
    },
    {
      "inputs": [
        {
          "internalType": "uint256",
          "name": "",
          "type": "uint256"
        }
      ],
      "name": "callerArray",
      "outputs": [
        {
          "internalType": "string",
          "name": "mobileNumber",
          "type": "string"
        },
        {
          "internalType": "string",
          "name": "name",
          "type": "string"
        },
        {
          "internalType": "string",
          "name": "email",
          "type": "string"
        },
        {
          "internalType": "uint256",
          "name": "spamCount",
          "type": "uint256"
        },
        {
          "internalType": "bool",
          "name": "isSpam",
          "type": "bool"
        },
        {
          "internalType": "uint256",
          "name": "lastReportTime",
          "type": "uint256"
        }
      ],
      "stateMutability": "view",
      "type": "function"
    },
    {
      "inputs": [
        {
          "internalType": "bytes32",
          "name": "",
          "type": "bytes32"
        }
      ],
      "name": "callers",
      "outputs": [
        {
          "internalType": "string",
          "name": "mobileNumber",
          "type": "string"
        },
        {
          "internalType": "string",
          "name": "name",
          "type": "string"
        },
        {
          "internalType": "string",
          "name": "email",
          "type": "string"
        },
        {
          "internalType": "uint256",
          "name": "spamCount",
          "type": "uint256"
        },
        {
          "internalType": "bool",
          "name": "isSpam",
          "type": "bool"
        },
        {
          "internalType": "uint256",
          "name": "lastReportTime",
          "type": "uint256"
        }
      ],
      "stateMutability": "view",
      "type": "function"
    },
    {
      "inputs": [
        {
          "internalType": "string",
          "name": "mobileNumber",
          "type": "string"
        }
      ],
      "name": "clearSpamReport",
      "outputs": [],
      "stateMutability": "nonpayable",
      "type": "function"
    },
    {
      "inputs": [],
      "name": "getAllCallerInfo",
      "outputs": [
        {
          "components": [
            {
              "internalType": "string",
              "name": "mobileNumber",
              "type": "string"
            },
            {
              "internalType": "string",
              "name": "name",
              "type": "string"
            },
            {
              "internalType": "string",
              "name": "email",
              "type": "string"
            },
            {
              "internalType": "uint256",
              "name": "spamCount",
              "type": "uint256"
            },
            {
              "internalType": "bool",
              "name": "isSpam",
              "type": "bool"
            },
            {
              "internalType": "uint256",
              "name": "lastReportTime",
              "type": "uint256"
            }
          ],
          "internalType": "struct Truecaller.Caller[]",
          "name": "",
          "type": "tuple[]"
        }
      ],
      "stateMutability": "view",
      "type": "function"
    },
    {
      "inputs": [],
      "name": "getAllSpamNumbers",
      "outputs": [
        {
          "internalType": "bytes32[]",
          "name": "",
          "type": "bytes32[]"
        },
        {
          "internalType": "string[]",
          "name": "",
          "type": "string[]"
        },
        {
          "internalType": "string[]",
          "name": "",
          "type": "string[]"
        },
        {
          "internalType": "bool[]",
          "name": "",
          "type": "bool[]"
        },
        {
          "internalType": "uint256[]",
          "name": "",
          "type": "uint256[]"
        }
      ],
      "stateMutability": "view",
      "type": "function"
    },
    {
      "inputs": [
        {
          "internalType": "string",
          "name": "mobileNumber",
          "type": "string"
        }
      ],
      "name": "reportSpam",
      "outputs": [],
      "stateMutability": "nonpayable",
      "type": "function"
    },
    {
      "inputs": [
        {
          "internalType": "string",
          "name": "mobileNumber",
          "type": "string"
        },
        {
          "internalType": "string",
          "name": "name",
          "type": "string"
        },
        {
          "internalType": "string",
          "name": "email",
          "type": "string"
        }
      ],
      "name": "setCaller",
      "outputs": [],
      "stateMutability": "nonpayable",
      "type": "function"
    },
    {
      "inputs": [],
      "name": "spamCooldown",
      "outputs": [
        {
          "internalType": "uint256",
          "name": "",
          "type": "uint256"
        }
      ],
      "stateMutability": "view",
      "type": "function"
    },
    {
      "inputs": [
        {
          "internalType": "uint256",
          "name": "",
          "type": "uint256"
        }
      ],
      "name": "spamMobileNumbers",
      "outputs": [
        {
          "internalType": "bytes32",
          "name": "",
          "type": "bytes32"
        }
      ],
      "stateMutability": "view",
      "type": "function"
    }
  ],
  "bytecode": "0x608060405234801561001057600080fd5b506121d3806100206000396000f3fe608060405234801561001057600080fd5b50600436106100935760003560e01c806361d45b9d1161006657806361d45b9d14610122578063667ba3a71461013e5780636a305e131461015c5780637936464e1461017a578063f907dfe3146101af57610093565b80630804258414610098578063280d0cf8146100b457806328a1b4a6146100d65780634f00983314610106575b600080fd5b6100b260048036038101906100ad91906115a4565b6101e4565b005b6100bc61038b565b6040516100cd959493929190611c1a565b60405180910390f35b6100f060048036038101906100eb919061167c565b61094d565b6040516100fd9190611cb2565b60405180910390f35b610120600480360381019061011b91906115e5565b610971565b005b61013c600480360381019061013791906115a4565b610b4f565b005b610146610dfb565b6040516101539190611c90565b60405180910390f35b61016461103f565b6040516101719190611dda565b60405180910390f35b610194600480360381019061018f919061157b565b611044565b6040516101a696959493929190611d04565b60405180910390f35b6101c960048036038101906101c4919061167c565b611225565b6040516101db96959493929190611d04565b60405180910390f35b60006101ef82611416565b90506000806000838152602001908152602001600020600101805461021390612056565b905011610255576040517f08c379a000000000000000000000000000000000000000000000000000000000815260040161024c90611dba565b60405180910390fd5b60008082815260200190815260200160002060040160009054906101000a900460ff16156102ad5760008082815260200190815260200160002060030160008154809291906102a390612088565b9190505550610320565b600160008083815260200190815260200160002060040160006101000a81548160ff02191690831515021790555060016000808381526020019081526020016000206003018190555060018190806001815401808255809150506001900390600052602060002001600090919091909150555b4260008083815260200190815260200160002060050181905550807f357ec451cd9ffec541435c0300fb5a6026b13d10f7fff4641e47da3f93a3f6806000808481526020019081526020016000206003015460405161037f9190611dda565b60405180910390a25050565b6060806060806060600060018054905067ffffffffffffffff8111156103da577f4e487b7100000000000000000000000000000000000000000000000000000000600052604160045260246000fd5b6040519080825280602002602001820160405280156104085781602001602082028036833780820191505090505b509050600060018054905067ffffffffffffffff811115610452577f4e487b7100000000000000000000000000000000000000000000000000000000600052604160045260246000fd5b60405190808252806020026020018201604052801561048557816020015b60608152602001906001900390816104705790505b509050600060018054905067ffffffffffffffff8111156104cf577f4e487b7100000000000000000000000000000000000000000000000000000000600052604160045260246000fd5b60405190808252806020026020018201604052801561050257816020015b60608152602001906001900390816104ed5790505b509050600060018054905067ffffffffffffffff81111561054c577f4e487b7100000000000000000000000000000000000000000000000000000000600052604160045260246000fd5b60405190808252806020026020018201604052801561057a5781602001602082028036833780820191505090505b509050600060018054905067ffffffffffffffff8111156105c4577f4e487b7100000000000000000000000000000000000000000000000000000000600052604160045260246000fd5b6040519080825280602002602001820160405280156105f25781602001602082028036833780820191505090505b50905060005b60018054905081101561093157600060018281548110610641577f4e487b7100000000000000000000000000000000000000000000000000000000600052603260045260246000fd5b9060005260206000200154905060008060008381526020019081526020016000209050806000016040516020016106789190611c03565b604051602081830303815290604052805190602001208884815181106106c7577f4e487b7100000000000000000000000000000000000000000000000000000000600052603260045260246000fd5b6020026020010181815250508060010180546106e290612056565b80601f016020809104026020016040519081016040528092919081815260200182805461070e90612056565b801561075b5780601f106107305761010080835404028352916020019161075b565b820191906000526020600020905b81548152906001019060200180831161073e57829003601f168201915b5050505050878481518110610799577f4e487b7100000000000000000000000000000000000000000000000000000000600052603260045260246000fd5b60200260200101819052508060020180546107b390612056565b80601f01602080910402602001604051908101604052809291908181526020018280546107df90612056565b801561082c5780601f106108015761010080835404028352916020019161082c565b820191906000526020600020905b81548152906001019060200180831161080f57829003601f168201915b505050505086848151811061086a577f4e487b7100000000000000000000000000000000000000000000000000000000600052603260045260246000fd5b60200260200101819052508060040160009054906101000a900460ff168584815181106108c0577f4e487b7100000000000000000000000000000000000000000000000000000000600052603260045260246000fd5b6020026020010190151590811515815250508060030154848481518110610910577f4e487b7100000000000000000000000000000000000000000000000000000000600052603260045260246000fd5b6020026020010181815250505050808061092990612088565b9150506105f8565b5084848484849950995099509950995050505050509091929394565b6001818154811061095d57600080fd5b906000526020600020016000915090505481565b60006040518060c00160405280858152602001848152602001838152602001600081526020016000151581526020016000815250905060006109b285611416565b90508160008083815260200190815260200160002060008201518160000190805190602001906109e3929190611446565b506020820151816001019080519060200190610a00929190611446565b506040820151816002019080519060200190610a1d929190611446565b506060820151816003015560808201518160040160006101000a81548160ff02191690831515021790555060a0820151816005015590505060028290806001815401808255809150506001900390600052602060002090600602016000909190919091506000820151816000019080519060200190610a9d929190611446565b506020820151816001019080519060200190610aba929190611446565b506040820151816002019080519060200190610ad7929190611446565b506060820151816003015560808201518160040160006101000a81548160ff02191690831515021790555060a082015181600501555050807f8aa903bd7e079258de132ac80d274dcd29c53260f39006430d8c7982f6e0be328585604051610b40929190611ccd565b60405180910390a25050505050565b6000610b5a82611416565b905060008082815260200190815260200160002060040160009054906101000a900460ff16610bbe576040517f08c379a0000000000000000000000000000000000000000000000000000000008152600401610bb590611d9a565b60405180910390fd5b603c6000808381526020019081526020016000206005015442610be19190611fc0565b1015610c22576040517f08c379a0000000000000000000000000000000000000000000000000000000008152600401610c1990611d7a565b60405180910390fd5b600080600083815260200190815260200160002060030181905550600080600083815260200190815260200160002060040160006101000a81548160ff02191690831515021790555060005b600180549050811015610dc9578160018281548110610cb6577f4e487b7100000000000000000000000000000000000000000000000000000000600052603260045260246000fd5b90600052602060002001541415610db6576001808080549050610cd99190611fc0565b81548110610d10577f4e487b7100000000000000000000000000000000000000000000000000000000600052603260045260246000fd5b906000526020600020015460018281548110610d55577f4e487b7100000000000000000000000000000000000000000000000000000000600052603260045260246000fd5b90600052602060002001819055506001805480610d9b577f4e487b7100000000000000000000000000000000000000000000000000000000600052603160045260246000fd5b60019003818190600052602060002001600090559055610dc9565b8080610dc190612088565b915050610c6e565b50807f2a08653d0a81d5b3ff131894ed72c7492a746a09285be8f3939be586c479362260405160405180910390a25050565b60606002805480602002602001604051908101604052809291908181526020016000905b8282101561103657838290600052602060002090600602016040518060c0016040529081600082018054610e5290612056565b80601f0160208091040260200160405190810160405280929190818152602001828054610e7e90612056565b8015610ecb5780601f10610ea057610100808354040283529160200191610ecb565b820191906000526020600020905b815481529060010190602001808311610eae57829003601f168201915b50505050508152602001600182018054610ee490612056565b80601f0160208091040260200160405190810160405280929190818152602001828054610f1090612056565b8015610f5d5780601f10610f3257610100808354040283529160200191610f5d565b820191906000526020600020905b815481529060010190602001808311610f4057829003601f168201915b50505050508152602001600282018054610f7690612056565b80601f0160208091040260200160405190810160405280929190818152602001828054610fa290612056565b8015610fef5780601f10610fc457610100808354040283529160200191610fef565b820191906000526020600020905b815481529060010190602001808311610fd257829003601f168201915b50505050508152602001600382015481526020016004820160009054906101000a900460ff1615151515815260200160058201548152505081526020019060010190610e1f565b50505050905090565b603c81565b600060205280600052604060002060009150905080600001805461106790612056565b80601f016020809104026020016040519081016040528092919081815260200182805461109390612056565b80156110e05780601f106110b5576101008083540402835291602001916110e0565b820191906000526020600020905b8154815290600101906020018083116110c357829003601f168201915b5050505050908060010180546110f590612056565b80601f016020809104026020016040519081016040528092919081815260200182805461112190612056565b801561116e5780601f106111435761010080835404028352916020019161116e565b820191906000526020600020905b81548152906001019060200180831161115157829003601f168201915b50505050509080600201805461118390612056565b80601f01602080910402602001604051908101604052809291908181526020018280546111af90612056565b80156111fc5780601f106111d1576101008083540402835291602001916111fc565b820191906000526020600020905b8154815290600101906020018083116111df57829003601f168201915b5050505050908060030154908060040160009054906101000a900460ff16908060050154905086565b6002818154811061123557600080fd5b906000526020600020906006020160009150905080600001805461125890612056565b80601f016020809104026020016040519081016040528092919081815260200182805461128490612056565b80156112d15780601f106112a6576101008083540402835291602001916112d1565b820191906000526020600020905b8154815290600101906020018083116112b457829003601f168201915b5050505050908060010180546112e690612056565b80601f016020809104026020016040519081016040528092919081815260200182805461131290612056565b801561135f5780601f106113345761010080835404028352916020019161135f565b820191906000526020600020905b81548152906001019060200180831161134257829003601f168201915b50505050509080600201805461137490612056565b80601f01602080910402602001604051908101604052809291908181526020018280546113a090612056565b80156113ed5780601f106113c2576101008083540402835291602001916113ed565b820191906000526020600020905b8154815290600101906020018083116113d057829003601f168201915b5050505050908060030154908060040160009054906101000a900460ff16908060050154905086565b6000816040516020016114299190611bec565b604051602081830303815290604052805190602001209050919050565b82805461145290612056565b90600052602060002090601f01602090048101928261147457600085556114bb565b82601f1061148d57805160ff19168380011785556114bb565b828001600101855582156114bb579182015b828111156114ba57825182559160200191906001019061149f565b5b5090506114c891906114cc565b5090565b5b808211156114e55760008160009055506001016114cd565b5090565b60006114fc6114f784611e26565b611df5565b90508281526020810184848401111561151457600080fd5b61151f848285612014565b509392505050565b6000813590506115368161216f565b92915050565b600082601f83011261154d57600080fd5b813561155d8482602086016114e9565b91505092915050565b60008135905061157581612186565b92915050565b60006020828403121561158d57600080fd5b600061159b84828501611527565b91505092915050565b6000602082840312156115b657600080fd5b600082013567ffffffffffffffff8111156115d057600080fd5b6115dc8482850161153c565b91505092915050565b6000806000606084860312156115fa57600080fd5b600084013567ffffffffffffffff81111561161457600080fd5b6116208682870161153c565b935050602084013567ffffffffffffffff81111561163d57600080fd5b6116498682870161153c565b925050604084013567ffffffffffffffff81111561166657600080fd5b6116728682870161153c565b9150509250925092565b60006020828403121561168e57600080fd5b600061169c84828501611566565b91505092915050565b60006116b18383611919565b60208301905092915050565b60006116c98383611937565b60208301905092915050565b60006116e18383611955565b905092915050565b60006116f58383611b37565b905092915050565b60006117098383611bce565b60208301905092915050565b600061172082611ebb565b61172a8185611f3e565b935061173583611e56565b8060005b8381101561176657815161174d88826116a5565b975061175883611efd565b925050600181019050611739565b5085935050505092915050565b600061177e82611ec6565b6117888185611f4f565b935061179383611e66565b8060005b838110156117c45781516117ab88826116bd565b97506117b683611f0a565b925050600181019050611797565b5085935050505092915050565b60006117dc82611ed1565b6117e68185611f60565b9350836020820285016117f885611e76565b8060005b85811015611834578484038952815161181585826116d5565b945061182083611f17565b925060208a019950506001810190506117fc565b50829750879550505050505092915050565b600061185182611edc565b61185b8185611f71565b93508360208202850161186d85611e86565b8060005b858110156118a9578484038952815161188a85826116e9565b945061189583611f24565b925060208a01995050600181019050611871565b50829750879550505050505092915050565b60006118c682611ee7565b6118d08185611f82565b93506118db83611e96565b8060005b8381101561190c5781516118f388826116fd565b97506118fe83611f31565b9250506001810190506118df565b5085935050505092915050565b61192281611ff4565b82525050565b61193181611ff4565b82525050565b61194081612000565b82525050565b61194f81612000565b82525050565b600061196082611ef2565b61196a8185611f93565b935061197a818560208601612023565b6119838161215e565b840191505092915050565b600061199982611ef2565b6119a38185611fa4565b93506119b3818560208601612023565b6119bc8161215e565b840191505092915050565b60006119d282611ef2565b6119dc8185611fb5565b93506119ec818560208601612023565b80840191505092915050565b60008154611a0581612056565b611a0f8186611fb5565b94506001821660008114611a2a5760018114611a3b57611a6e565b60ff19831686528186019350611a6e565b611a4485611ea6565b60005b83811015611a6657815481890152600182019150602081019050611a47565b838801955050505b50505092915050565b6000611a84601b83611fa4565b91507f436f6f6c646f776e20706572696f64206e6f7420656c617073656400000000006000830152602082019050919050565b6000611ac4601c83611fa4565b91507f43616c6c6572206973206e6f74206d61726b6564206173207370616d000000006000830152602082019050919050565b6000611b04601083611fa4565b91507f43616c6c6572206e6f7420666f756e64000000000000000000000000000000006000830152602082019050919050565b600060c0830160008301518482036000860152611b548282611955565b91505060208301518482036020860152611b6e8282611955565b91505060408301518482036040860152611b888282611955565b9150506060830151611b9d6060860182611bce565b506080830151611bb06080860182611919565b5060a0830151611bc360a0860182611bce565b508091505092915050565b611bd78161200a565b82525050565b611be68161200a565b82525050565b6000611bf882846119c7565b915081905092915050565b6000611c0f82846119f8565b915081905092915050565b600060a0820190508181036000830152611c348188611773565b90508181036020830152611c4881876117d1565b90508181036040830152611c5c81866117d1565b90508181036060830152611c708185611715565b90508181036080830152611c8481846118bb565b90509695505050505050565b60006020820190508181036000830152611caa8184611846565b905092915050565b6000602082019050611cc76000830184611946565b92915050565b60006040820190508181036000830152611ce7818561198e565b90508181036020830152611cfb818461198e565b90509392505050565b600060c0820190508181036000830152611d1e818961198e565b90508181036020830152611d32818861198e565b90508181036040830152611d46818761198e565b9050611d556060830186611bdd565b611d626080830185611928565b611d6f60a0830184611bdd565b979650505050505050565b60006020820190508181036000830152611d9381611a77565b9050919050565b60006020820190508181036000830152611db381611ab7565b9050919050565b60006020820190508181036000830152611dd381611af7565b9050919050565b6000602082019050611def6000830184611bdd565b92915050565b6000604051905081810181811067ffffffffffffffff82111715611e1c57611e1b61212f565b5b8060405250919050565b600067ffffffffffffffff821115611e4157611e4061212f565b5b601f19601f8301169050602081019050919050565b6000819050602082019050919050565b6000819050602082019050919050565b6000819050602082019050919050565b6000819050602082019050919050565b6000819050602082019050919050565b60008190508160005260206000209050919050565b600081519050919050565b600081519050919050565b600081519050919050565b600081519050919050565b600081519050919050565b600081519050919050565b6000602082019050919050565b6000602082019050919050565b6000602082019050919050565b6000602082019050919050565b6000602082019050919050565b600082825260208201905092915050565b600082825260208201905092915050565b600082825260208201905092915050565b600082825260208201905092915050565b600082825260208201905092915050565b600082825260208201905092915050565b600082825260208201905092915050565b600081905092915050565b6000611fcb8261200a565b9150611fd68361200a565b925082821015611fe957611fe86120d1565b5b828203905092915050565b60008115159050919050565b6000819050919050565b6000819050919050565b82818337600083830152505050565b60005b83811015612041578082015181840152602081019050612026565b83811115612050576000848401525b50505050565b6000600282049050600182168061206e57607f821691505b6020821081141561208257612081612100565b5b50919050565b60006120938261200a565b91507fffffffffffffffffffffffffffffffffffffffffffffffffffffffffffffffff8214156120c6576120c56120d1565b5b600182019050919050565b7f4e487b7100000000000000000000000000000000000000000000000000000000600052601160045260246000fd5b7f4e487b7100000000000000000000000000000000000000000000000000000000600052602260045260246000fd5b7f4e487b7100000000000000000000000000000000000000000000000000000000600052604160045260246000fd5b6000601f19601f8301169050919050565b61217881612000565b811461218357600080fd5b50565b61218f8161200a565b811461219a57600080fd5b5056fea26469706673582212202b971b2916aeec8b062284366288aa84784513f6c57daebb3e12c093ed54469764736f6c63430008000033",
  "linkReferences": {},
  "deployedLinkReferences": {}
}