{
  "_format": "hh-sol-artifact-1",
  "contractName": "Truecaller",
  "sourceName": "contracts/Truecaller.sol",
  "abi": [
    {
      "anonymous": false,
      "inputs": [
        {
          "indexed": true,
          "internalType": "string",
          "name": "mobileNumberHash",
          "type": "string"
        },
        {
          "indexed": false,
          "internalType": "string",
          "name": "name",
          "type": "string"
        },
        {
          "indexed": false,
          "internalType": "string",
          "name": "email",
          "type": "string"
        }
      ],
      "name": "CallerRegistered",
      "type": "event"
    },
    {
      "anonymous": false,
      "inputs": [
        {
          "indexed": true,
          "internalType": "string",
          "name": "mobileNumberHash",
          "type": "string"
        }
      ],
      "name": "SpamRemoved",
      "type": "event"
    },
    {
      "anonymous": false,
      "inputs": [
        {
          "indexed": true,
          "internalType": "string",
          "name": "mobileNumberHash",
          "type": "string"
        },
        {
          "indexed": false,
          "internalType": "bool",
          "name": "isSpam",
          "type": "bool"
        }
      ],
      "name": "SpamReported",
      "type": "event"
    },
    {
      "inputs": [
        {
          "internalType": "uint256",
          "name": "",
          "type": "uint256"
        }
      ],
      "name": "callerArray",
      "outputs": [
        {
          "internalType": "string",
          "name": "mobileNumber",
          "type": "string"
        },
        {
          "internalType": "string",
          "name": "name",
          "type": "string"
        },
        {
          "internalType": "string",
          "name": "email",
          "type": "string"
        },
        {
          "internalType": "bool",
          "name": "isSpam",
          "type": "bool"
        },
        {
          "internalType": "uint256",
          "name": "lastReportTime",
          "type": "uint256"
        }
      ],
      "stateMutability": "view",
      "type": "function"
    },
    {
      "inputs": [
        {
          "internalType": "string",
          "name": "",
          "type": "string"
        }
      ],
      "name": "callers",
      "outputs": [
        {
          "internalType": "string",
          "name": "mobileNumber",
          "type": "string"
        },
        {
          "internalType": "string",
          "name": "name",
          "type": "string"
        },
        {
          "internalType": "string",
          "name": "email",
          "type": "string"
        },
        {
          "internalType": "bool",
          "name": "isSpam",
          "type": "bool"
        },
        {
          "internalType": "uint256",
          "name": "lastReportTime",
          "type": "uint256"
        }
      ],
      "stateMutability": "view",
      "type": "function"
    },
    {
      "inputs": [],
      "name": "getAllCallerInfo",
      "outputs": [
        {
          "components": [
            {
              "internalType": "string",
              "name": "mobileNumber",
              "type": "string"
            },
            {
              "internalType": "string",
              "name": "name",
              "type": "string"
            },
            {
              "internalType": "string",
              "name": "email",
              "type": "string"
            },
            {
              "internalType": "bool",
              "name": "isSpam",
              "type": "bool"
            },
            {
              "internalType": "uint256",
              "name": "lastReportTime",
              "type": "uint256"
            }
          ],
          "internalType": "struct Truecaller.Caller[]",
          "name": "",
          "type": "tuple[]"
        }
      ],
      "stateMutability": "view",
      "type": "function"
    },
    {
      "inputs": [
        {
          "internalType": "string",
          "name": "mobileNumber",
          "type": "string"
        }
      ],
      "name": "getCallerInfo",
      "outputs": [
        {
          "internalType": "string",
          "name": "name",
          "type": "string"
        },
        {
          "internalType": "string",
          "name": "email",
          "type": "string"
        },
        {
          "internalType": "string",
          "name": "mobile",
          "type": "string"
        },
        {
          "internalType": "bool",
          "name": "isSpam",
          "type": "bool"
        }
      ],
      "stateMutability": "view",
      "type": "function"
    },
    {
      "inputs": [
        {
          "internalType": "string",
          "name": "mobileNumber",
          "type": "string"
        }
      ],
      "name": "removeSpam",
      "outputs": [],
      "stateMutability": "nonpayable",
      "type": "function"
    },
    {
      "inputs": [
        {
          "internalType": "string",
          "name": "mobileNumber",
          "type": "string"
        }
      ],
      "name": "reportSpam",
      "outputs": [],
      "stateMutability": "nonpayable",
      "type": "function"
    },
    {
      "inputs": [
        {
          "internalType": "string",
          "name": "mobileNumber",
          "type": "string"
        },
        {
          "internalType": "string",
          "name": "name",
          "type": "string"
        },
        {
          "internalType": "string",
          "name": "email",
          "type": "string"
        }
      ],
      "name": "setCaller",
      "outputs": [],
      "stateMutability": "nonpayable",
      "type": "function"
    },
    {
      "inputs": [],
      "name": "spamCooldown",
      "outputs": [
        {
          "internalType": "uint256",
          "name": "",
          "type": "uint256"
        }
      ],
      "stateMutability": "view",
      "type": "function"
    }
  ],
  "bytecode": "0x608060405234801561001057600080fd5b50611884806100206000396000f3fe608060405234801561001057600080fd5b50600436106100885760003560e01c80636a305e131161005b5780636a305e1314610116578063d96fe6c414610134578063f907dfe314610168578063fe72c9171461019c57610088565b8063080425841461008d5780634f009833146100a9578063618ab816146100c5578063667ba3a7146100f8575b600080fd5b6100a760048036038101906100a291906110f4565b6101b8565b005b6100c360048036038101906100be9190611135565b6103cd565b005b6100df60048036038101906100da91906110f4565b6105a3565b6040516100ef9493929190611502565b60405180910390f35b6101006107d5565b60405161010d919061148e565b60405180910390f35b61011e610a0f565b60405161012b91906115c4565b60405180910390f35b61014e600480360381019061014991906110f4565b610a14565b60405161015f95949392919061155c565b60405180910390f35b610182600480360381019061017d91906111cc565b610c05565b60405161019395949392919061155c565b60405180910390f35b6101b660048036038101906101b191906110f4565b610df0565b005b60008190506000816040516101cd9190611460565b908152602001604051809103902060030160009054906101000a900460ff166103c95760016000826040516102029190611460565b908152602001604051809103902060030160006101000a81548160ff02191690831515021790555060005b600180549050811015610353578260405160200161024b9190611460565b604051602081830303815290604052805190602001206001828154811061029b577f4e487b7100000000000000000000000000000000000000000000000000000000600052603260045260246000fd5b90600052602060002090600502016000016040516020016102bc9190611477565b604051602081830303815290604052805190602001201415610340576001808281548110610313577f4e487b7100000000000000000000000000000000000000000000000000000000600052603260045260246000fd5b906000526020600020906005020160030160006101000a81548160ff021916908315150217905550610353565b808061034b90611750565b91505061022d565b50426000826040516103659190611460565b908152602001604051809103902060040181905550806040516103889190611460565b60405180910390207f1c9f945886ef1af446dfbc2d45b75575776fc53c03ef05a9ceb0c960759a34a260016040516103c091906114b0565b60405180910390a25b5050565b60006040518060a00160405280858152602001848152602001838152602001600015158152602001600081525090508060008560405161040d9190611460565b90815260200160405180910390206000820151816000019080519060200190610437929190610fd4565b506020820151816001019080519060200190610454929190610fd4565b506040820151816002019080519060200190610471929190610fd4565b5060608201518160030160006101000a81548160ff02191690831515021790555060808201518160040155905050600181908060018154018082558091505060019003906000526020600020906005020160009091909190915060008201518160000190805190602001906104e7929190610fd4565b506020820151816001019080519060200190610504929190610fd4565b506040820151816002019080519060200190610521929190610fd4565b5060608201518160030160006101000a81548160ff0219169083151502179055506080820151816004015550508360405161055c9190611460565b60405180910390207f3eb5413a94158ffe6c2ac09f3b4087ad04a2a2a74a1d06c46db43c170c3920af84846040516105959291906114cb565b60405180910390a250505050565b60608060606000806000866040516105bb9190611460565b90815260200160405180910390206040518060a00160405290816000820180546105e49061171e565b80601f01602080910402602001604051908101604052809291908181526020018280546106109061171e565b801561065d5780601f106106325761010080835404028352916020019161065d565b820191906000526020600020905b81548152906001019060200180831161064057829003601f168201915b505050505081526020016001820180546106769061171e565b80601f01602080910402602001604051908101604052809291908181526020018280546106a29061171e565b80156106ef5780601f106106c4576101008083540402835291602001916106ef565b820191906000526020600020905b8154815290600101906020018083116106d257829003601f168201915b505050505081526020016002820180546107089061171e565b80601f01602080910402602001604051908101604052809291908181526020018280546107349061171e565b80156107815780601f1061075657610100808354040283529160200191610781565b820191906000526020600020905b81548152906001019060200180831161076457829003601f168201915b505050505081526020016003820160009054906101000a900460ff16151515158152602001600482015481525050905080602001518160400151826000015183606001519450945094509450509193509193565b60606001805480602002602001604051908101604052809291908181526020016000905b82821015610a0657838290600052602060002090600502016040518060a001604052908160008201805461082c9061171e565b80601f01602080910402602001604051908101604052809291908181526020018280546108589061171e565b80156108a55780601f1061087a576101008083540402835291602001916108a5565b820191906000526020600020905b81548152906001019060200180831161088857829003601f168201915b505050505081526020016001820180546108be9061171e565b80601f01602080910402602001604051908101604052809291908181526020018280546108ea9061171e565b80156109375780601f1061090c57610100808354040283529160200191610937565b820191906000526020600020905b81548152906001019060200180831161091a57829003601f168201915b505050505081526020016002820180546109509061171e565b80601f016020809104026020016040519081016040528092919081815260200182805461097c9061171e565b80156109c95780601f1061099e576101008083540402835291602001916109c9565b820191906000526020600020905b8154815290600101906020018083116109ac57829003601f168201915b505050505081526020016003820160009054906101000a900460ff16151515158152602001600482015481525050815260200190600101906107f9565b50505050905090565b603c81565b600081805160208101820180518482526020830160208501208183528095505050505050600091509050806000018054610a4d9061171e565b80601f0160208091040260200160405190810160405280929190818152602001828054610a799061171e565b8015610ac65780601f10610a9b57610100808354040283529160200191610ac6565b820191906000526020600020905b815481529060010190602001808311610aa957829003601f168201915b505050505090806001018054610adb9061171e565b80601f0160208091040260200160405190810160405280929190818152602001828054610b079061171e565b8015610b545780601f10610b2957610100808354040283529160200191610b54565b820191906000526020600020905b815481529060010190602001808311610b3757829003601f168201915b505050505090806002018054610b699061171e565b80601f0160208091040260200160405190810160405280929190818152602001828054610b959061171e565b8015610be25780601f10610bb757610100808354040283529160200191610be2565b820191906000526020600020905b815481529060010190602001808311610bc557829003601f168201915b5050505050908060030160009054906101000a900460ff16908060040154905085565b60018181548110610c1557600080fd5b9060005260206000209060050201600091509050806000018054610c389061171e565b80601f0160208091040260200160405190810160405280929190818152602001828054610c649061171e565b8015610cb15780601f10610c8657610100808354040283529160200191610cb1565b820191906000526020600020905b815481529060010190602001808311610c9457829003601f168201915b505050505090806001018054610cc69061171e565b80601f0160208091040260200160405190810160405280929190818152602001828054610cf29061171e565b8015610d3f5780601f10610d1457610100808354040283529160200191610d3f565b820191906000526020600020905b815481529060010190602001808311610d2257829003601f168201915b505050505090806002018054610d549061171e565b80601f0160208091040260200160405190810160405280929190818152602001828054610d809061171e565b8015610dcd5780601f10610da257610100808354040283529160200191610dcd565b820191906000526020600020905b815481529060010190602001808311610db057829003601f168201915b5050505050908060030160009054906101000a900460ff16908060040154905085565b6000819050600081604051610e059190611460565b908152602001604051809103902060030160009054906101000a900460ff1615610fd05760008082604051610e3a9190611460565b908152602001604051809103902060030160006101000a81548160ff02191690831515021790555060005b600180549050811015610f8c5782604051602001610e839190611460565b6040516020818303038152906040528051906020012060018281548110610ed3577f4e487b7100000000000000000000000000000000000000000000000000000000600052603260045260246000fd5b9060005260206000209060050201600001604051602001610ef49190611477565b604051602081830303815290604052805190602001201415610f7957600060018281548110610f4c577f4e487b7100000000000000000000000000000000000000000000000000000000600052603260045260246000fd5b906000526020600020906005020160030160006101000a81548160ff021916908315150217905550610f8c565b8080610f8490611750565b915050610e65565b5080604051610f9b9190611460565b60405180910390207fec68c870f2236a5a3d474b4b45cb729110ad7ee47116bac29d9776ee6fc08f4960405160405180910390a25b5050565b828054610fe09061171e565b90600052602060002090601f0160209004810192826110025760008555611049565b82601f1061101b57805160ff1916838001178555611049565b82800160010185558215611049579182015b8281111561104857825182559160200191906001019061102d565b5b509050611056919061105a565b5090565b5b8082111561107357600081600090555060010161105b565b5090565b600061108a61108584611610565b6115df565b9050828152602081018484840111156110a257600080fd5b6110ad8482856116dc565b509392505050565b600082601f8301126110c657600080fd5b81356110d6848260208601611077565b91505092915050565b6000813590506110ee81611837565b92915050565b60006020828403121561110657600080fd5b600082013567ffffffffffffffff81111561112057600080fd5b61112c848285016110b5565b91505092915050565b60008060006060848603121561114a57600080fd5b600084013567ffffffffffffffff81111561116457600080fd5b611170868287016110b5565b935050602084013567ffffffffffffffff81111561118d57600080fd5b611199868287016110b5565b925050604084013567ffffffffffffffff8111156111b657600080fd5b6111c2868287016110b5565b9150509250925092565b6000602082840312156111de57600080fd5b60006111ec848285016110df565b91505092915050565b600061120183836113be565b905092915050565b600061121482611665565b61121e8185611688565b93508360208202850161123085611640565b8060005b8581101561126c578484038952815161124d85826111f5565b94506112588361167b565b925060208a01995050600181019050611234565b50829750879550505050505092915050565b611287816116c6565b82525050565b611296816116c6565b82525050565b60006112a782611670565b6112b18185611699565b93506112c18185602086016116eb565b6112ca81611826565b840191505092915050565b60006112e082611670565b6112ea81856116aa565b93506112fa8185602086016116eb565b61130381611826565b840191505092915050565b600061131982611670565b61132381856116bb565b93506113338185602086016116eb565b80840191505092915050565b6000815461134c8161171e565b61135681866116bb565b945060018216600081146113715760018114611382576113b5565b60ff198316865281860193506113b5565b61138b85611650565b60005b838110156113ad5781548189015260018201915060208101905061138e565b838801955050505b50505092915050565b600060a08301600083015184820360008601526113db828261129c565b915050602083015184820360208601526113f5828261129c565b9150506040830151848203604086015261140f828261129c565b9150506060830151611424606086018261127e565b5060808301516114376080860182611442565b508091505092915050565b61144b816116d2565b82525050565b61145a816116d2565b82525050565b600061146c828461130e565b915081905092915050565b6000611483828461133f565b915081905092915050565b600060208201905081810360008301526114a88184611209565b905092915050565b60006020820190506114c5600083018461128d565b92915050565b600060408201905081810360008301526114e581856112d5565b905081810360208301526114f981846112d5565b90509392505050565b6000608082019050818103600083015261151c81876112d5565b9050818103602083015261153081866112d5565b9050818103604083015261154481856112d5565b9050611553606083018461128d565b95945050505050565b600060a082019050818103600083015261157681886112d5565b9050818103602083015261158a81876112d5565b9050818103604083015261159e81866112d5565b90506115ad606083018561128d565b6115ba6080830184611451565b9695505050505050565b60006020820190506115d96000830184611451565b92915050565b6000604051905081810181811067ffffffffffffffff82111715611606576116056117f7565b5b8060405250919050565b600067ffffffffffffffff82111561162b5761162a6117f7565b5b601f19601f8301169050602081019050919050565b6000819050602082019050919050565b60008190508160005260206000209050919050565b600081519050919050565b600081519050919050565b6000602082019050919050565b600082825260208201905092915050565b600082825260208201905092915050565b600082825260208201905092915050565b600081905092915050565b60008115159050919050565b6000819050919050565b82818337600083830152505050565b60005b838110156117095780820151818401526020810190506116ee565b83811115611718576000848401525b50505050565b6000600282049050600182168061173657607f821691505b6020821081141561174a576117496117c8565b5b50919050565b600061175b826116d2565b91507fffffffffffffffffffffffffffffffffffffffffffffffffffffffffffffffff82141561178e5761178d611799565b5b600182019050919050565b7f4e487b7100000000000000000000000000000000000000000000000000000000600052601160045260246000fd5b7f4e487b7100000000000000000000000000000000000000000000000000000000600052602260045260246000fd5b7f4e487b7100000000000000000000000000000000000000000000000000000000600052604160045260246000fd5b6000601f19601f8301169050919050565b611840816116d2565b811461184b57600080fd5b5056fea2646970667358221220a62d480f1baa7971dd130ec05b5a4f259b30051384a78e53d7495f975253ccc164736f6c63430008000033",
  "linkReferences": {},
  "deployedLinkReferences": {}
}