{
  "_format": "hh-sol-artifact-1",
  "contractName": "Truecaller",
  "sourceName": "contracts/Truecaller.sol",
  "abi": [
    {
      "anonymous": false,
      "inputs": [
        {
          "indexed": true,
          "internalType": "string",
          "name": "mobileNumberHash",
          "type": "string"
        },
        {
          "indexed": false,
          "internalType": "string",
          "name": "name",
          "type": "string"
        },
        {
          "indexed": false,
          "internalType": "string",
          "name": "email",
          "type": "string"
        }
      ],
      "name": "CallerRegistered",
      "type": "event"
    },
    {
      "anonymous": false,
      "inputs": [
        {
          "indexed": true,
          "internalType": "string",
          "name": "mobileNumberHash",
          "type": "string"
        }
      ],
      "name": "SpamReportCleared",
      "type": "event"
    },
    {
      "anonymous": false,
      "inputs": [
        {
          "indexed": true,
          "internalType": "string",
          "name": "mobileNumberHash",
          "type": "string"
        },
        {
          "indexed": false,
          "internalType": "uint256",
          "name": "spamCount",
          "type": "uint256"
        },
        {
          "indexed": false,
          "internalType": "bool",
          "name": "isSpam",
          "type": "bool"
        }
      ],
      "name": "SpamReported",
      "type": "event"
    },
    {
      "inputs": [
        {
          "internalType": "uint256",
          "name": "",
          "type": "uint256"
        }
      ],
      "name": "callerArray",
      "outputs": [
        {
          "internalType": "string",
          "name": "mobileNumber",
          "type": "string"
        },
        {
          "internalType": "string",
          "name": "name",
          "type": "string"
        },
        {
          "internalType": "string",
          "name": "email",
          "type": "string"
        },
        {
          "internalType": "uint256",
          "name": "spamCount",
          "type": "uint256"
        },
        {
          "internalType": "bool",
          "name": "isSpam",
          "type": "bool"
        },
        {
          "internalType": "uint256",
          "name": "lastReportTime",
          "type": "uint256"
        }
      ],
      "stateMutability": "view",
      "type": "function"
    },
    {
      "inputs": [
        {
          "internalType": "string",
          "name": "",
          "type": "string"
        }
      ],
      "name": "callers",
      "outputs": [
        {
          "internalType": "string",
          "name": "mobileNumber",
          "type": "string"
        },
        {
          "internalType": "string",
          "name": "name",
          "type": "string"
        },
        {
          "internalType": "string",
          "name": "email",
          "type": "string"
        },
        {
          "internalType": "uint256",
          "name": "spamCount",
          "type": "uint256"
        },
        {
          "internalType": "bool",
          "name": "isSpam",
          "type": "bool"
        },
        {
          "internalType": "uint256",
          "name": "lastReportTime",
          "type": "uint256"
        }
      ],
      "stateMutability": "view",
      "type": "function"
    },
    {
      "inputs": [
        {
          "internalType": "string",
          "name": "mobileNumber",
          "type": "string"
        }
      ],
      "name": "clearSpamReport",
      "outputs": [],
      "stateMutability": "nonpayable",
      "type": "function"
    },
    {
      "inputs": [],
      "name": "getAllCallerInfo",
      "outputs": [
        {
          "components": [
            {
              "internalType": "string",
              "name": "mobileNumber",
              "type": "string"
            },
            {
              "internalType": "string",
              "name": "name",
              "type": "string"
            },
            {
              "internalType": "string",
              "name": "email",
              "type": "string"
            },
            {
              "internalType": "uint256",
              "name": "spamCount",
              "type": "uint256"
            },
            {
              "internalType": "bool",
              "name": "isSpam",
              "type": "bool"
            },
            {
              "internalType": "uint256",
              "name": "lastReportTime",
              "type": "uint256"
            }
          ],
          "internalType": "struct Truecaller.Caller[]",
          "name": "",
          "type": "tuple[]"
        }
      ],
      "stateMutability": "view",
      "type": "function"
    },
    {
      "inputs": [],
      "name": "getAllSpamNumbers",
      "outputs": [
        {
          "internalType": "string[]",
          "name": "",
          "type": "string[]"
        },
        {
          "internalType": "string[]",
          "name": "",
          "type": "string[]"
        },
        {
          "internalType": "string[]",
          "name": "",
          "type": "string[]"
        },
        {
          "internalType": "bool[]",
          "name": "",
          "type": "bool[]"
        },
        {
          "internalType": "uint256[]",
          "name": "",
          "type": "uint256[]"
        }
      ],
      "stateMutability": "view",
      "type": "function"
    },
    {
      "inputs": [
        {
          "internalType": "string",
          "name": "mobileNumber",
          "type": "string"
        }
      ],
      "name": "reportSpam",
      "outputs": [
        {
          "components": [
            {
              "internalType": "string",
              "name": "mobileNumber",
              "type": "string"
            },
            {
              "internalType": "string",
              "name": "name",
              "type": "string"
            },
            {
              "internalType": "string",
              "name": "email",
              "type": "string"
            },
            {
              "internalType": "uint256",
              "name": "spamCount",
              "type": "uint256"
            },
            {
              "internalType": "bool",
              "name": "isSpam",
              "type": "bool"
            },
            {
              "internalType": "uint256",
              "name": "lastReportTime",
              "type": "uint256"
            }
          ],
          "internalType": "struct Truecaller.Caller[]",
          "name": "",
          "type": "tuple[]"
        }
      ],
      "stateMutability": "nonpayable",
      "type": "function"
    },
    {
      "inputs": [],
      "name": "returnSpamNumbersWithInfo",
      "outputs": [
        {
          "internalType": "string[]",
          "name": "",
          "type": "string[]"
        },
        {
          "internalType": "string[]",
          "name": "",
          "type": "string[]"
        },
        {
          "internalType": "string[]",
          "name": "",
          "type": "string[]"
        },
        {
          "internalType": "uint256[]",
          "name": "",
          "type": "uint256[]"
        }
      ],
      "stateMutability": "view",
      "type": "function"
    },
    {
      "inputs": [
        {
          "internalType": "string",
          "name": "mobileNumber",
          "type": "string"
        },
        {
          "internalType": "string",
          "name": "name",
          "type": "string"
        },
        {
          "internalType": "string",
          "name": "email",
          "type": "string"
        }
      ],
      "name": "setCaller",
      "outputs": [],
      "stateMutability": "nonpayable",
      "type": "function"
    },
    {
      "inputs": [],
      "name": "spamCooldown",
      "outputs": [
        {
          "internalType": "uint256",
          "name": "",
          "type": "uint256"
        }
      ],
      "stateMutability": "view",
      "type": "function"
    },
    {
      "inputs": [
        {
          "internalType": "uint256",
          "name": "",
          "type": "uint256"
        }
      ],
      "name": "spamMobileNumbers",
      "outputs": [
        {
          "internalType": "string",
          "name": "",
          "type": "string"
        }
      ],
      "stateMutability": "view",
      "type": "function"
    },
    {
      "inputs": [],
      "name": "testSpamReturn",
      "outputs": [
        {
          "components": [
            {
              "internalType": "string",
              "name": "mobileNumber",
              "type": "string"
            },
            {
              "internalType": "string",
              "name": "name",
              "type": "string"
            },
            {
              "internalType": "string",
              "name": "email",
              "type": "string"
            },
            {
              "internalType": "uint256",
              "name": "spamCount",
              "type": "uint256"
            },
            {
              "internalType": "bool",
              "name": "isSpam",
              "type": "bool"
            },
            {
              "internalType": "uint256",
              "name": "lastReportTime",
              "type": "uint256"
            }
          ],
          "internalType": "struct Truecaller.Caller[]",
          "name": "",
          "type": "tuple[]"
        }
      ],
      "stateMutability": "view",
      "type": "function"
    }
  ],
  "bytecode": "0x608060405234801561001057600080fd5b50612e36806100206000396000f3fe608060405234801561001057600080fd5b50600436106100a95760003560e01c8063667ba3a711610071578063667ba3a7146101685780636a305e1314610186578063acb8c110146101a4578063cd1518dd146101c5578063d96fe6c4146101e3578063f907dfe314610218576100a9565b806308042584146100ae578063280d0cf8146100de57806328a1b4a6146101005780634f0098331461013057806361d45b9d1461014c575b600080fd5b6100c860048036038101906100c39190612242565b61024d565b6040516100d59190612951565b60405180910390f35b6100e6610749565b6040516100f795949392919061287a565b60405180910390f35b61011a6004803603810190610115919061231a565b610e05565b6040516101279190612973565b60405180910390f35b61014a60048036038101906101459190612283565b610eb1565b005b61016660048036038101906101619190612242565b6110a2565b005b610170611364565b60405161017d9190612951565b60405180910390f35b61018e6115a8565b60405161019b9190612a82565b60405180910390f35b6101ac6115ad565b6040516101bc94939291906128f0565b60405180910390f35b6101cd611af6565b6040516101da9190612951565b60405180910390f35b6101fd60048036038101906101f89190612242565b611d3a565b60405161020f969594939291906129cc565b60405180910390f35b610232600480360381019061022d919061231a565b611f31565b604051610244969594939291906129cc565b60405180910390f35b606060008290506000816040516102649190612835565b908152602001604051809103902060040160009054906101000a900460ff16156102c4576000816040516102989190612835565b908152602001604051809103902060030160008154809291906102ba90612d02565b9190505550610362565b60016000826040516102d69190612835565b908152602001604051809103902060040160006101000a81548160ff02191690831515021790555060016000826040516103109190612835565b908152602001604051809103902060030181905550600181908060018154018082558091505060019003906000526020600020016000909190919091509080519060200190610360929190612122565b505b426000826040516103739190612835565b90815260200160405180910390206005018190555060005b60028054905081101561050357816040516020016103a99190612835565b60405160208183030381529060405280519060200120600282815481106103f9577f4e487b7100000000000000000000000000000000000000000000000000000000600052603260045260246000fd5b906000526020600020906006020160000160405160200161041a919061284c565b6040516020818303038152906040528051906020012014156104f057600160028281548110610472577f4e487b7100000000000000000000000000000000000000000000000000000000600052603260045260246000fd5b906000526020600020906006020160040160006101000a81548160ff0219169083151502179055506001600282815481106104d6577f4e487b7100000000000000000000000000000000000000000000000000000000600052603260045260246000fd5b906000526020600020906006020160030181905550610503565b80806104fb90612d02565b91505061038b565b506002805480602002602001604051908101604052809291908181526020016000905b8282101561073d57838290600052602060002090600602016040518060c001604052908160008201805461055990612cd0565b80601f016020809104026020016040519081016040528092919081815260200182805461058590612cd0565b80156105d25780601f106105a7576101008083540402835291602001916105d2565b820191906000526020600020905b8154815290600101906020018083116105b557829003601f168201915b505050505081526020016001820180546105eb90612cd0565b80601f016020809104026020016040519081016040528092919081815260200182805461061790612cd0565b80156106645780601f1061063957610100808354040283529160200191610664565b820191906000526020600020905b81548152906001019060200180831161064757829003601f168201915b5050505050815260200160028201805461067d90612cd0565b80601f01602080910402602001604051908101604052809291908181526020018280546106a990612cd0565b80156106f65780601f106106cb576101008083540402835291602001916106f6565b820191906000526020600020905b8154815290600101906020018083116106d957829003601f168201915b50505050508152602001600382015481526020016004820160009054906101000a900460ff1615151515815260200160058201548152505081526020019060010190610526565b50505050915050919050565b6060806060806060600060018054905067ffffffffffffffff811115610798577f4e487b7100000000000000000000000000000000000000000000000000000000600052604160045260246000fd5b6040519080825280602002602001820160405280156107cb57816020015b60608152602001906001900390816107b65790505b509050600060018054905067ffffffffffffffff811115610815577f4e487b7100000000000000000000000000000000000000000000000000000000600052604160045260246000fd5b60405190808252806020026020018201604052801561084857816020015b60608152602001906001900390816108335790505b509050600060018054905067ffffffffffffffff811115610892577f4e487b7100000000000000000000000000000000000000000000000000000000600052604160045260246000fd5b6040519080825280602002602001820160405280156108c557816020015b60608152602001906001900390816108b05790505b509050600060018054905067ffffffffffffffff81111561090f577f4e487b7100000000000000000000000000000000000000000000000000000000600052604160045260246000fd5b60405190808252806020026020018201604052801561093d5781602001602082028036833780820191505090505b509050600060018054905067ffffffffffffffff811115610987577f4e487b7100000000000000000000000000000000000000000000000000000000600052604160045260246000fd5b6040519080825280602002602001820160405280156109b55781602001602082028036833780820191505090505b50905060005b600180549050811015610de957600060018281548110610a04577f4e487b7100000000000000000000000000000000000000000000000000000000600052603260045260246000fd5b906000526020600020018054610a1990612cd0565b80601f0160208091040260200160405190810160405280929190818152602001828054610a4590612cd0565b8015610a925780601f10610a6757610100808354040283529160200191610a92565b820191906000526020600020905b815481529060010190602001808311610a7557829003601f168201915b5050505050905060008082604051610aaa9190612835565b90815260200160405180910390209050806000018054610ac990612cd0565b80601f0160208091040260200160405190810160405280929190818152602001828054610af590612cd0565b8015610b425780601f10610b1757610100808354040283529160200191610b42565b820191906000526020600020905b815481529060010190602001808311610b2557829003601f168201915b5050505050888481518110610b80577f4e487b7100000000000000000000000000000000000000000000000000000000600052603260045260246000fd5b6020026020010181905250806001018054610b9a90612cd0565b80601f0160208091040260200160405190810160405280929190818152602001828054610bc690612cd0565b8015610c135780601f10610be857610100808354040283529160200191610c13565b820191906000526020600020905b815481529060010190602001808311610bf657829003601f168201915b5050505050878481518110610c51577f4e487b7100000000000000000000000000000000000000000000000000000000600052603260045260246000fd5b6020026020010181905250806002018054610c6b90612cd0565b80601f0160208091040260200160405190810160405280929190818152602001828054610c9790612cd0565b8015610ce45780601f10610cb957610100808354040283529160200191610ce4565b820191906000526020600020905b815481529060010190602001808311610cc757829003601f168201915b5050505050868481518110610d22577f4e487b7100000000000000000000000000000000000000000000000000000000600052603260045260246000fd5b60200260200101819052508060040160009054906101000a900460ff16858481518110610d78577f4e487b7100000000000000000000000000000000000000000000000000000000600052603260045260246000fd5b6020026020010190151590811515815250508060030154848481518110610dc8577f4e487b7100000000000000000000000000000000000000000000000000000000600052603260045260246000fd5b60200260200101818152505050508080610de190612d02565b9150506109bb565b5084848484849950995099509950995050505050509091929394565b60018181548110610e1557600080fd5b906000526020600020016000915090508054610e3090612cd0565b80601f0160208091040260200160405190810160405280929190818152602001828054610e5c90612cd0565b8015610ea95780601f10610e7e57610100808354040283529160200191610ea9565b820191906000526020600020905b815481529060010190602001808311610e8c57829003601f168201915b505050505081565b60006040518060c00160405280858152602001848152602001838152602001600081526020016000151581526020016000815250905080600085604051610ef89190612835565b90815260200160405180910390206000820151816000019080519060200190610f22929190612122565b506020820151816001019080519060200190610f3f929190612122565b506040820151816002019080519060200190610f5c929190612122565b506060820151816003015560808201518160040160006101000a81548160ff02191690831515021790555060a0820151816005015590505060028190806001815401808255809150506001900390600052602060002090600602016000909190919091506000820151816000019080519060200190610fdc929190612122565b506020820151816001019080519060200190610ff9929190612122565b506040820151816002019080519060200190611016929190612122565b506060820151816003015560808201518160040160006101000a81548160ff02191690831515021790555060a0820151816005015550508360405161105b9190612835565b60405180910390207f3eb5413a94158ffe6c2ac09f3b4087ad04a2a2a74a1d06c46db43c170c3920af8484604051611094929190612995565b60405180910390a250505050565b60008190506000816040516110b79190612835565b908152602001604051809103902060040160009054906101000a900460ff16611115576040517f08c379a000000000000000000000000000000000000000000000000000000000815260040161110c90612a62565b60405180910390fd5b603c6000826040516111279190612835565b908152602001604051809103902060050154426111449190612c44565b1015611185576040517f08c379a000000000000000000000000000000000000000000000000000000000815260040161117c90612a42565b60405180910390fd5b600080826040516111969190612835565b908152602001604051809103902060030181905550600080826040516111bc9190612835565b908152602001604051809103902060040160006101000a81548160ff02191690831515021790555060005b60028054905081101561135f57816040516020016112059190612835565b6040516020818303038152906040528051906020012060028281548110611255577f4e487b7100000000000000000000000000000000000000000000000000000000600052603260045260246000fd5b9060005260206000209060060201600001604051602001611276919061284c565b60405160208183030381529060405280519060200120141561134c576000600282815481106112ce577f4e487b7100000000000000000000000000000000000000000000000000000000600052603260045260246000fd5b906000526020600020906006020160040160006101000a81548160ff021916908315150217905550600060028281548110611332577f4e487b7100000000000000000000000000000000000000000000000000000000600052603260045260246000fd5b90600052602060002090600602016003018190555061135f565b808061135790612d02565b9150506111e7565b505050565b60606002805480602002602001604051908101604052809291908181526020016000905b8282101561159f57838290600052602060002090600602016040518060c00160405290816000820180546113bb90612cd0565b80601f01602080910402602001604051908101604052809291908181526020018280546113e790612cd0565b80156114345780601f1061140957610100808354040283529160200191611434565b820191906000526020600020905b81548152906001019060200180831161141757829003601f168201915b5050505050815260200160018201805461144d90612cd0565b80601f016020809104026020016040519081016040528092919081815260200182805461147990612cd0565b80156114c65780601f1061149b576101008083540402835291602001916114c6565b820191906000526020600020905b8154815290600101906020018083116114a957829003601f168201915b505050505081526020016002820180546114df90612cd0565b80601f016020809104026020016040519081016040528092919081815260200182805461150b90612cd0565b80156115585780601f1061152d57610100808354040283529160200191611558565b820191906000526020600020905b81548152906001019060200180831161153b57829003601f168201915b50505050508152602001600382015481526020016004820160009054906101000a900460ff1615151515815260200160058201548152505081526020019060010190611388565b50505050905090565b603c81565b6060806060806000600180549050905060008167ffffffffffffffff8111156115ff577f4e487b7100000000000000000000000000000000000000000000000000000000600052604160045260246000fd5b60405190808252806020026020018201604052801561163257816020015b606081526020019060019003908161161d5790505b50905060008267ffffffffffffffff811115611677577f4e487b7100000000000000000000000000000000000000000000000000000000600052604160045260246000fd5b6040519080825280602002602001820160405280156116aa57816020015b60608152602001906001900390816116955790505b50905060008367ffffffffffffffff8111156116ef577f4e487b7100000000000000000000000000000000000000000000000000000000600052604160045260246000fd5b60405190808252806020026020018201604052801561172257816020015b606081526020019060019003908161170d5790505b50905060008467ffffffffffffffff811115611767577f4e487b7100000000000000000000000000000000000000000000000000000000600052604160045260246000fd5b6040519080825280602002602001820160405280156117955781602001602082028036833780820191505090505b50905060005b85811015611ade576000600182815481106117df577f4e487b7100000000000000000000000000000000000000000000000000000000600052603260045260246000fd5b906000526020600020019050600080826040516117fc9190612863565b9081526020016040518091039020905080600001805461181b90612cd0565b80601f016020809104026020016040519081016040528092919081815260200182805461184790612cd0565b80156118945780601f1061186957610100808354040283529160200191611894565b820191906000526020600020905b81548152906001019060200180831161187757829003601f168201915b50505050508784815181106118d2577f4e487b7100000000000000000000000000000000000000000000000000000000600052603260045260246000fd5b60200260200101819052508060010180546118ec90612cd0565b80601f016020809104026020016040519081016040528092919081815260200182805461191890612cd0565b80156119655780601f1061193a57610100808354040283529160200191611965565b820191906000526020600020905b81548152906001019060200180831161194857829003601f168201915b50505050508684815181106119a3577f4e487b7100000000000000000000000000000000000000000000000000000000600052603260045260246000fd5b60200260200101819052508060020180546119bd90612cd0565b80601f01602080910402602001604051908101604052809291908181526020018280546119e990612cd0565b8015611a365780601f10611a0b57610100808354040283529160200191611a36565b820191906000526020600020905b815481529060010190602001808311611a1957829003601f168201915b5050505050858481518110611a74577f4e487b7100000000000000000000000000000000000000000000000000000000600052603260045260246000fd5b60200260200101819052508060030154848481518110611abd577f4e487b7100000000000000000000000000000000000000000000000000000000600052603260045260246000fd5b60200260200101818152505050508080611ad690612d02565b91505061179b565b50838383839850985098509850505050505090919293565b60606002805480602002602001604051908101604052809291908181526020016000905b82821015611d3157838290600052602060002090600602016040518060c0016040529081600082018054611b4d90612cd0565b80601f0160208091040260200160405190810160405280929190818152602001828054611b7990612cd0565b8015611bc65780601f10611b9b57610100808354040283529160200191611bc6565b820191906000526020600020905b815481529060010190602001808311611ba957829003601f168201915b50505050508152602001600182018054611bdf90612cd0565b80601f0160208091040260200160405190810160405280929190818152602001828054611c0b90612cd0565b8015611c585780601f10611c2d57610100808354040283529160200191611c58565b820191906000526020600020905b815481529060010190602001808311611c3b57829003601f168201915b50505050508152602001600282018054611c7190612cd0565b80601f0160208091040260200160405190810160405280929190818152602001828054611c9d90612cd0565b8015611cea5780601f10611cbf57610100808354040283529160200191611cea565b820191906000526020600020905b815481529060010190602001808311611ccd57829003601f168201915b50505050508152602001600382015481526020016004820160009054906101000a900460ff1615151515815260200160058201548152505081526020019060010190611b1a565b50505050905090565b600081805160208101820180518482526020830160208501208183528095505050505050600091509050806000018054611d7390612cd0565b80601f0160208091040260200160405190810160405280929190818152602001828054611d9f90612cd0565b8015611dec5780601f10611dc157610100808354040283529160200191611dec565b820191906000526020600020905b815481529060010190602001808311611dcf57829003601f168201915b505050505090806001018054611e0190612cd0565b80601f0160208091040260200160405190810160405280929190818152602001828054611e2d90612cd0565b8015611e7a5780601f10611e4f57610100808354040283529160200191611e7a565b820191906000526020600020905b815481529060010190602001808311611e5d57829003601f168201915b505050505090806002018054611e8f90612cd0565b80601f0160208091040260200160405190810160405280929190818152602001828054611ebb90612cd0565b8015611f085780601f10611edd57610100808354040283529160200191611f08565b820191906000526020600020905b815481529060010190602001808311611eeb57829003601f168201915b5050505050908060030154908060040160009054906101000a900460ff16908060050154905086565b60028181548110611f4157600080fd5b9060005260206000209060060201600091509050806000018054611f6490612cd0565b80601f0160208091040260200160405190810160405280929190818152602001828054611f9090612cd0565b8015611fdd5780601f10611fb257610100808354040283529160200191611fdd565b820191906000526020600020905b815481529060010190602001808311611fc057829003601f168201915b505050505090806001018054611ff290612cd0565b80601f016020809104026020016040519081016040528092919081815260200182805461201e90612cd0565b801561206b5780601f106120405761010080835404028352916020019161206b565b820191906000526020600020905b81548152906001019060200180831161204e57829003601f168201915b50505050509080600201805461208090612cd0565b80601f01602080910402602001604051908101604052809291908181526020018280546120ac90612cd0565b80156120f95780601f106120ce576101008083540402835291602001916120f9565b820191906000526020600020905b8154815290600101906020018083116120dc57829003601f168201915b5050505050908060030154908060040160009054906101000a900460ff16908060050154905086565b82805461212e90612cd0565b90600052602060002090601f0160209004810192826121505760008555612197565b82601f1061216957805160ff1916838001178555612197565b82800160010185558215612197579182015b8281111561219657825182559160200191906001019061217b565b5b5090506121a491906121a8565b5090565b5b808211156121c15760008160009055506001016121a9565b5090565b60006121d86121d384612ace565b612a9d565b9050828152602081018484840111156121f057600080fd5b6121fb848285612c8e565b509392505050565b600082601f83011261221457600080fd5b81356122248482602086016121c5565b91505092915050565b60008135905061223c81612de9565b92915050565b60006020828403121561225457600080fd5b600082013567ffffffffffffffff81111561226e57600080fd5b61227a84828501612203565b91505092915050565b60008060006060848603121561229857600080fd5b600084013567ffffffffffffffff8111156122b257600080fd5b6122be86828701612203565b935050602084013567ffffffffffffffff8111156122db57600080fd5b6122e786828701612203565b925050604084013567ffffffffffffffff81111561230457600080fd5b61231086828701612203565b9150509250925092565b60006020828403121561232c57600080fd5b600061233a8482850161222d565b91505092915050565b600061234f8383612541565b60208301905092915050565b6000612367838361255f565b905092915050565b600061237b8383612780565b905092915050565b600061238f8383612817565b60208301905092915050565b60006123a682612b68565b6123b08185612bd3565b93506123bb83612afe565b8060005b838110156123ec5781516123d38882612343565b97506123de83612b9f565b9250506001810190506123bf565b5085935050505092915050565b600061240482612b73565b61240e8185612be4565b93508360208202850161242085612b0e565b8060005b8581101561245c578484038952815161243d858261235b565b945061244883612bac565b925060208a01995050600181019050612424565b50829750879550505050505092915050565b600061247982612b7e565b6124838185612bf5565b93508360208202850161249585612b1e565b8060005b858110156124d157848403895281516124b2858261236f565b94506124bd83612bb9565b925060208a01995050600181019050612499565b50829750879550505050505092915050565b60006124ee82612b89565b6124f88185612c06565b935061250383612b2e565b8060005b8381101561253457815161251b8882612383565b975061252683612bc6565b925050600181019050612507565b5085935050505092915050565b61254a81612c78565b82525050565b61255981612c78565b82525050565b600061256a82612b94565b6125748185612c17565b9350612584818560208601612c9d565b61258d81612dd8565b840191505092915050565b60006125a382612b94565b6125ad8185612c28565b93506125bd818560208601612c9d565b6125c681612dd8565b840191505092915050565b60006125dc82612b94565b6125e68185612c39565b93506125f6818560208601612c9d565b80840191505092915050565b6000815461260f81612cd0565b6126198186612c39565b94506001821660008114612634576001811461264557612678565b60ff19831686528186019350612678565b61264e85612b53565b60005b8381101561267057815481890152600182019150602081019050612651565b838801955050505b50505092915050565b6000815461268e81612cd0565b6126988186612c39565b945060018216600081146126b357600181146126c4576126f7565b60ff198316865281860193506126f7565b6126cd85612b3e565b60005b838110156126ef578154818901526001820191506020810190506126d0565b838801955050505b50505092915050565b600061270d601b83612c28565b91507f436f6f6c646f776e20706572696f64206e6f7420656c617073656400000000006000830152602082019050919050565b600061274d601c83612c28565b91507f43616c6c6572206973206e6f74206d61726b6564206173207370616d000000006000830152602082019050919050565b600060c083016000830151848203600086015261279d828261255f565b915050602083015184820360208601526127b7828261255f565b915050604083015184820360408601526127d1828261255f565b91505060608301516127e66060860182612817565b5060808301516127f96080860182612541565b5060a083015161280c60a0860182612817565b508091505092915050565b61282081612c84565b82525050565b61282f81612c84565b82525050565b600061284182846125d1565b915081905092915050565b60006128588284612681565b915081905092915050565b600061286f8284612602565b915081905092915050565b600060a082019050818103600083015261289481886123f9565b905081810360208301526128a881876123f9565b905081810360408301526128bc81866123f9565b905081810360608301526128d0818561239b565b905081810360808301526128e481846124e3565b90509695505050505050565b6000608082019050818103600083015261290a81876123f9565b9050818103602083015261291e81866123f9565b9050818103604083015261293281856123f9565b9050818103606083015261294681846124e3565b905095945050505050565b6000602082019050818103600083015261296b818461246e565b905092915050565b6000602082019050818103600083015261298d8184612598565b905092915050565b600060408201905081810360008301526129af8185612598565b905081810360208301526129c38184612598565b90509392505050565b600060c08201905081810360008301526129e68189612598565b905081810360208301526129fa8188612598565b90508181036040830152612a0e8187612598565b9050612a1d6060830186612826565b612a2a6080830185612550565b612a3760a0830184612826565b979650505050505050565b60006020820190508181036000830152612a5b81612700565b9050919050565b60006020820190508181036000830152612a7b81612740565b9050919050565b6000602082019050612a976000830184612826565b92915050565b6000604051905081810181811067ffffffffffffffff82111715612ac457612ac3612da9565b5b8060405250919050565b600067ffffffffffffffff821115612ae957612ae8612da9565b5b601f19601f8301169050602081019050919050565b6000819050602082019050919050565b6000819050602082019050919050565b6000819050602082019050919050565b6000819050602082019050919050565b60008190508160005260206000209050919050565b60008190508160005260206000209050919050565b600081519050919050565b600081519050919050565b600081519050919050565b600081519050919050565b600081519050919050565b6000602082019050919050565b6000602082019050919050565b6000602082019050919050565b6000602082019050919050565b600082825260208201905092915050565b600082825260208201905092915050565b600082825260208201905092915050565b600082825260208201905092915050565b600082825260208201905092915050565b600082825260208201905092915050565b600081905092915050565b6000612c4f82612c84565b9150612c5a83612c84565b925082821015612c6d57612c6c612d4b565b5b828203905092915050565b60008115159050919050565b6000819050919050565b82818337600083830152505050565b60005b83811015612cbb578082015181840152602081019050612ca0565b83811115612cca576000848401525b50505050565b60006002820490506001821680612ce857607f821691505b60208210811415612cfc57612cfb612d7a565b5b50919050565b6000612d0d82612c84565b91507fffffffffffffffffffffffffffffffffffffffffffffffffffffffffffffffff821415612d4057612d3f612d4b565b5b600182019050919050565b7f4e487b7100000000000000000000000000000000000000000000000000000000600052601160045260246000fd5b7f4e487b7100000000000000000000000000000000000000000000000000000000600052602260045260246000fd5b7f4e487b7100000000000000000000000000000000000000000000000000000000600052604160045260246000fd5b6000601f19601f8301169050919050565b612df281612c84565b8114612dfd57600080fd5b5056fea2646970667358221220de4370ce7b134a9c90fa265ffea03e704d73646f66ff6a3d3357c9034151e26164736f6c63430008000033",
  "linkReferences": {},
  "deployedLinkReferences": {}
}